:1000000008C1000037C1000035C1000033C1000045
:1000100031C100002FC100002DC100002BC1000024
:1000200029C1000027C1000025C1000023C1000034
:1000300021C100001FC100001DC100001BC1000044
:1000400019C1000017C1000015C1000013C1000054
:1000500011C100000FC100000DC100000C948C1CE8
:1000600009C100000C94121C0C94E91B03C1000090
:1000700001C10000FFC00000FDC00000FBC0000087
:10008000F9C00000F7C00000F5C00000F3C0000098
:10009000F1C00000EFC00000EDC000000C94D61CC1
:1000A000E9C00000E7C00000E5C00000E3C00000B8
:1000B000E1C00000DFC00000DDC00000DBC00000C8
:1000C000D9C00000D7C00000D5C00000D3C00000D8
:1000D000D1C00000CFC00000CDC00000CBC00000E8
:1000E000C9C00000C70ACA0AB90ABD0AC10A010B81
:1000F000CE0AD20AD80ADC0AE00AE60AEA0AEE0ABE
:10010000010BF40AF80AFC0A00000A0B02090C0DA4
:100110000E080703040100000000000000000000BA
:1001200000000000000000000000000000000000CF
:10013000000000001211100000000000000000008C
:1001400000000000000000000000000000000000AF
:100150002200250028002B002E003100340002016F
:100160000000050108010B01000021002400270008
:100170002A002D00300033000101000004010701B6
:100180000A0105050505070508080808020202021C
:100190000A0A080804040404010101010101010123
:1001A0000303030303030303040707070C0C0C0CEE
:1001B0000C0C0C0C020202020606060606060606D7
:1001C0000B0B0B0B0B0B0B0B010210202008081064
:1001D00020401020408002010201080402010102B7
:1001E0000408102040808040201008040201800490
:1001F00002018040201008040201080402010102EB
:1002000004081020408001020408102040802923A7
:10021000431E11241FBECFEFD1E2DEBFCDBF00E0F1
:100220000CBF15E0A0E0B2E0E4E6F4E500E00BBFAF
:1002300002C007900D92AA30B107D9F728E0AAE0D2
:10024000B5E001C01D92AA32B207E1F711E0C8E0A3
:10025000D1E000E006C021970109802FFE010E9435
:10026000FF24C730D10780E00807A9F70E944B1E82
:100270000C94212AC5CEFC0126813781620F731FA1
:10028000848195818617970738F0828193817783DF
:100290006683820F931F089580E090E008952F9267
:1002A0003F924F925F926F927F928F929F92AF9206
:1002B000BF92CF92DF92EF92FF920F931F93CF9353
:1002C000DF93CDB7DEB7E3970FB6F894DEBF0FBE6E
:1002D000CDBF7C011A012B0139010E94801C4B010A
:1002E0005C0187010D5B1F4FC8010E943213181675
:1002F0001906A4F00E94801CDC01CB018819990921
:10030000AA09BB09281639064A065B06D8F062E33B
:1003100070E080E090E00E94481CE6CF42E250E0AE
:10032000BE016F5F7F4FC8010E94FC168981823039
:1003300011F080E061C1F8018489958983349105C9
:10034000C1F702C08FEF58C16D817E818F81988582
:100350000E9407254B015C01F30160837183828356
:10036000938346E050E0B701685F7F4FCE014D9622
:100370000E942327892BE9F6F70180819181A281D0
:10038000B38188169906AA06BB0698F284819581E6
:10039000A681B78188159905AA05BB0550F2898900
:1003A0009A89AB89BC8986879787A08BB18B8EECA5
:1003B000A82EB12CC8010E941A17F1E0AF1AB1089B
:1003C000C9F719A6670182E2C80ED11CF701B696DB
:1003D000FBA7EAA7C7018A969DA78CA73C974F0168
:1003E00089969FA78EA73897F9ABE8AB1701F6E17E
:1003F0002F0E311CC5979BAB8AABF801818D928D76
:10040000181619060CF0F7C0C8010E941A1783339A
:10041000910509F4CBC0FCF481309105C9F11CF4BD
:10042000892B59F3DCC083309105D1F1069709F08F
:10043000D6C0C8010E941A175C0144E050E06AA9C6
:100440007BA9C8010E94FC16412C512CBB24F4E06E
:10045000AF1AB10840C08A33910509F47BC03CF45F
:100460008533910569F0C69709F440C0B8C08B3355
:10047000910509F485C08F3F910509F4BECFAFC047
:10048000C8010E941A17C8010E941A1789A7B5CF80
:10049000C8010E941A1744E050E068A979A93AC03F
:1004A000C8010E941A175C0144E050E0B101C80184
:1004B0000E94FC16412C512CBB2494E0A91AB108CF
:1004C0004A145B040CF099CFC8010E941A17EFEF91
:1004D0004E1A5E0AF5CF4A145B040CF08ECFC801A9
:1004E0000E941A178FEF481A580AF5CFC8010E94C8
:1004F0001A17B82EF701828D811110C0838D8111DA
:100500000DC0848D81110AC0858D811107C044E022
:1005100050E0B401C8010E94FC166FCFEEA5FFA504
:100520004080518062807380B401CE0183960E9426
:10053000D91B8DA19EA1AFA1B8A584159505A605CF
:10054000B70529F3BB2009F458CFC8010E941A1738
:10055000BA94F8CFC8010E941A1744E050E06AA587
:100560007BA5C8010E94FC16F70166A177A180A5B2
:1005700091A50E94072566A377A380A791A73DCFE9
:10058000C8010E941A1744E050E06CA57DA5C8017F
:100590000E94FC16F70162A573A584A595A50E948B
:1005A000072562A773A784A795A727CFC8010E9434
:1005B0001A1744E050E0B601C8010E94FC16F7018A
:1005C00062A173A184A195A10E94072562A373A3D0
:1005D00084A395A366A777A780AB91AB0ECFC80184
:1005E0000E941A17B82EBB2009F407CFC8010E9439
:1005F0001A17BA94F8CF89A5E3960FB6F894DEBF20
:100600000FBECDBFDF91CF911F910F91FF90EF9063
:10061000DF90CF90BF90AF909F908F907F906F9022
:100620005F904F903F902F9008957F928F929F926E
:10063000AF92BF92CF92DF92EF92FF920F931F93F0
:10064000CF93DF93CDB7DEB7A6970FB6F894DEBF92
:100650000FBECDBF8C01762E942E852E20E2B22EB9
:10066000CE0101967C01FC012B2D11922A95E9F710
:100670008EEE92E09AA389A38FEF8BA38CA38DA318
:100680008EA3680183E4C80ED11C43E450E0BE0190
:100690006F5D7F4FC6010E94F914019609F4BFC037
:1006A00081E089838A8386E0A82EAB821C82F801D0
:1006B00064817581868197810E9407256D837E8381
:1006C0008F83988789869A8680E890E09C878B87BD
:1006D0004CE150E0B701C6010E948913F7012B2DB0
:1006E00011922A95E9F7480188E0880E911CF401DF
:1006F000D70101900D92AA94E1F740E150E0B701D3
:10070000C6010E948913F7011192BA94E9F796E0A5
:10071000A92EB12C40E250E0B701C6010E94891316
:10072000F1E0AF1AB108B1F783E6898392E89A83C2
:1007300093E59B838C8385E38D8381E08E837F8229
:100740009DE3988797E099878A8786E0F401DE0128
:100750001B9601900D928A95E1F78CE0898B8A8B2C
:1007600068EF72E0CE0143960E944227F80143856C
:10077000BE01675E7F4FC8010E94AE12F80144853A
:10078000BE01655E7F4FC8010E94AE12F80145852B
:10079000BE01635E7F4FC8010E94AE124EE150E081
:1007A000B701C6010E948913F3E07F121EC082E3E5
:1007B000898384E08A83F80196859B8397859C834F
:1007C00090899D8391899E8396E39F838887828DFC
:1007D0008987838D8A87848D8B87858D8C874CE074
:1007E00050E0B701C6010E94891387E3898386E040
:1007F0008A8391E09B8393E09C838D838FE08E833B
:100800008AE38F838BE388878FEF898749E050E005
:10081000B701C6010E948913C6010E94BB14A696A7
:100820000FB6F894DEBF0FBECDBFDF91CF911F9101
:100830000F91FF90EF90DF90CF90BF90AF909F907F
:100840008F907F900895FC01A081B1818C918D30B3
:1008500051F024F489508230B8F505C0803219F087
:100860008F3219F0089511962CC011968C91119722
:100870008A3219F08F32D1F008951196B183A08396
:10088000A081B181CD0101969183808311968C91D5
:1008900011978823C9F08A3299F712968C91129792
:1008A0008F3271F713960DC08A3071F2A081B18139
:1008B000CD0101969183808311968C918111F4CFA3
:1008C00003C0B183A083C0CF08950F931F93CF932C
:1008D000DF931F92CDB7DEB78C016983B4DFD801F7
:1008E000ED91FC91119780816981861305C0319645
:1008F000ED93FC9381E001C080E00F90DF91CF91F8
:100900001F910F9108950F931F93CF93DF93EC01E5
:100910000C811D81029697DFEA81FB8190819732DD
:1009200019F1923209F180ED890F8A3058F0892F40
:100930008F7D81548A3130F09B3221F083ED890F15
:100940008230F0F52A813B812F5F3F4F3B832A8322
:10095000EC81FD819F012F5F3F4F3D832C8390836E
:10096000EA81FB819081DFCF3196FB83EA83EA81C4
:10097000FB812081222321F1AF014F5F5F4F5B8319
:100980004A832917E9F02C3591F42181A3E0B3E0E3
:100990008C91882339F0821303C011962C9102C0E8
:1009A0001296F6CF222361F03296FB83EA83EC8124
:1009B000FD81AF014F5F5F4F5D834C832083D7CFB5
:1009C000EC81FD81CF0101969D838C831082C8014B
:1009D000DF91CF911F910F9108950F931F93CF93A4
:1009E000DF93CDB7DEB7E3970FB6F894DEBF0FBE47
:1009F000CDBF0E94B0188111CAC0609145077091A7
:100A000046078091B0069091B106409147075091FA
:100A10004807DC01ED91FC916115710521F000881A
:100A2000F189E02D16C00684F785E02D2EEE32E028
:100A30003A8329830091410710914207209143078F
:100A4000309144070B831C832D833E83BE016F5F6F
:100A50007F4F19958130910509F092C0909333072B
:100A60008093320787E0E2E1F2E0DE011196019027
:100A70000D928A95E1F7FE013196A7EBB6E0CE0123
:100A8000089621912D93E817F907D9F782E0809312
:100A9000BE061092BF068FE08093C0064FE050E084
:100AA00062EB76E08EE093E00E941F18AC014550A7
:100AB000510962EB76E080E10E9440180E94801CA0
:100AC0006093340770933507809336079093370708
:100AD000609338077093390780933A0790933B07E8
:100AE0008091B0069091B106DC01ED91FC910084FB
:100AF000F185E02D1995892BC1F40E94801C00918D
:100B000038071091390720913A0730913B07DC01F3
:100B1000CB01801B910BA20BB30B88399A43A10523
:100B2000B105F0F28CEF9FEF1BC0CE01C396B8D297
:100B30000497D1F48091B506811111C00E94801CE8
:100B4000609338077093390780933A0790933B0777
:100B500010923C0710924C0710924B0718C090E07F
:100B600090934C0780934B078091B0069091B1060B
:100B7000DC01ED91FC910488F589E02D199548C0C0
:100B80008EEF9FEF90934C0780934B0741C049E154
:100B900050E08E010F5F1F4FB80180E697E00E9482
:100BA000E518F80101900020E9F79F01201B310BA7
:100BB000285F3F4F2138310558F50E94B01888232F
:100BC00039F18091320790913307019611F481E059
:100BD00090E0909333078093320780913207909191
:100BE00033079093B7068093B80647E050E062EB76
:100BF00076E0C8010E941F18FC01E055F94F1282EF
:100C0000AC014450510962EB76E082E80E94401842
:100C10000E94B018E3960FB6F894DEBF0FBECDBFAA
:100C2000DF91CF911F910F910895DB01109749F04B
:100C3000ED91FC9111970190F081E02DBC01CD0167
:100C4000199480E090E008957F928F929F92AF92E6
:100C5000BF92CF92DF92EF92FF920F931F93CF93A9
:100C6000DF9300D000D0CDB7DEB75C01DC010D9181
:100C70001C91B80184E090E0D8DF009739F0FC01C6
:100C800011830083138212828C0111C080910E05A2
:100C900081110BC010920B0510920A0510920D05E0
:100CA00010920C0581E080930E050AE015E06501C5
:100CB000F2E0CF0ED11C6BE7C60107DE882309F4F2
:100CC0004DC06DE7C60101DE81117AC086E0782E45
:100CD000C50119DE4C01892B09F440C06AE3C60145
:100CE000F4DD8823D9F11A821982BE016F5F7F4F2C
:100CF000C5010E940819882389F1D8011296ED9048
:100D0000FC901397E114F104D9F1F701628173812A
:100D1000C4010E943927892B71F0D701ED90FC9016
:100D2000F1CFF182E082E114F104C1F0D701139612
:100D30009C928E921297FE013196D7011496872DC0
:100D400001900D928A95E1F76DE7C601BEDD811134
:100D500037C06CE2C601B9DD8111BACF80910E05B2
:100D600081110BC010920B0510920A0510920D050F
:100D700010920C0581E080930E050AE015E020C07A
:100D8000F801608171818AE090E04FDF7C01892B5E
:100D900029F0F7011182108215821482D80112966F
:100DA000ED91FC911397309739F0808191810097F4
:100DB00009F4B7CFFC01F9CFF801F382E282B3CF97
:100DC000C80126960FB6F894DEBF0FBECDBFDF91E7
:100DD000CF911F910F91FF90EF90DF90CF90BF9038
:100DE000AF909F908F907F900895CF92DF92EF9277
:100DF000FF920F931F93CF93DF93CDB7DEB7C0540D
:100E0000D1400FB6F894DEBF0FBECDBF9E01275F65
:100E10003F4F3C832B8328EC30E03E832D831886A4
:100E20001F822DE132E03A832983009711F09C0163
:100E300002C02DE033E08E010F521F4FAE014F5F15
:100E40005F4FF801518340833383228395838483EA
:100E50008AE08683C801F8DEFC0120813181232BE2
:100E600031F46CE173E08DEB95E07CD7C7C0FC01F9
:100E7000E280F380E114F10469F1F701628173818A
:100E80008DEB95E06FD7F701C480D580F1E0CF16E8
:100E9000D10461F4F701668177816115710531F044
:100EA0008EE393E00E943927892B59F0F1E0CF1AA5
:100EB000D10882E0C816D10420F4F7016681778159
:100EC00002C060E070E08DEB95E04CD7F701E08068
:100ED000F180D0CF68EE73E080E090E00E94481C83
:100EE00063E473E0CE01855C9E4FCBD6CB5CDE4FD6
:100EF00019821882C553D140C95CDE4F198218820D
:100F0000C753D140C75CDE4F19821882C953D14004
:100F100060915A0770915B076115710541F040912E
:100F20005E0750915F07CE018B5C9E4F22D6C15C5D
:100F3000DE4F48815981CF53D1404F5F5F4F31F031
:100F4000B801CE01855C9E4F0E94E518C75CDE4F5C
:100F500048815981C953D1404F5F5F4F41F0BE0175
:100F60006D5F7E4FCE018B5C9E4F0E94E518F801AD
:100F700001900020E9F731977F01E01AF10A0E9401
:100F8000B018882399F1CE018D5F9E4FFC0101902E
:100F90000020E9F73197E81BF90B9701295F3F4FD4
:100FA000E20FF31FE138F10508F545E050E062EB90
:100FB00076E00E941F18F80120E030E02E153F0572
:100FC00059F04191D901A80FB91FA055B94F1296F8
:100FD0004C932F5F3F4FF2CF25503109A901480FA5
:100FE000591F62EB76E080E30E944018CE018B5CD3
:100FF0009E4F42D6CE01855C9E4F3ED6C05CDE4FF2
:101000000FB6F894DEBF0FBECDBFDF91CF911F9119
:101010000F91FF90EF90DF90CF9008950F931F9363
:10102000CF93DF9300D01F92CDB7DEB7CA014B83B9
:101030005C8369837A830E940E258C014B815C81DD
:1010400069817A810E943027C801CFDEC8010F90E4
:101050000F900F900F90DF91CF911F910F910C94F3
:10106000A32590E0FC01E853FE4F2491FC01EE57CC
:10107000FE4F8491882399F090E0880F991FFC011E
:10108000E859FE4FA591B491FC01E25BFE4F8591BA
:1010900094918FB7F894EC91E22BEC938FBF089565
:1010A0005F926F927F928F929F92AF92BF92CF92F8
:1010B000DF92EF92FF920F931F93CF93DF931F92D4
:1010C000CDB7DEB74C0182EB96E00E94111A811178
:1010D00026C022C00F5F1F4F8981F801E055F94FEC
:1010E0008183282F2F7730E02C9DA0012D9D500D5E
:1010F0003C9D500D1124A40EB51E37E0CC0CDD1C18
:10110000EE1CFF1C3A95D1F787FF15C0CE01019662
:101110000E94111A8111DECF80E090E088C07090AB
:10112000B206198201E010E0A12CB12CC12CD12C07
:101130007601C394EBCF872D807F55245394803361
:1011400009F0512C8FEF800FD4018C93552021F1A1
:10115000C8018E54994F0E94111A8823E9F2C801E0
:101160008D54994F0E94111A8823B1F20E5F1F4FC0
:10117000D401EC91F0E0E055F94FE380F12CFE2C26
:10118000EE248481E80EF11C8091B20681FF08C034
:10119000B2E0EB0EF11C04C080E0E12CF12C01C0A8
:1011A00082E0C82ED12CC01AD10A9EEF692E772476
:1011B0007A94C601800F911F8A159B0568F5CE01B0
:1011C00001960E94111A882309F4A6CF809149073D
:1011D00090914A070097A9F0552099F0F4012081D9
:1011E000A301421B51099A01200F311FE216F30699
:1011F00040F4DC01ED91FC910190F081E02D6981DA
:1012000019950038110528F48981F801E055F94F46
:1012100082830F5F1F4FCDCF8091490790914A077E
:10122000892B21F40138110508F076CFC8010F9001
:10123000DF91CF911F910F91FF90EF90DF90CF90B2
:10124000BF90AF909F908F907F906F905F90089528
:10125000CF93DF93FC0144815581608171818DEBD7
:1012600095E0A6D4EC0165E573E08DEB95E01DD526
:101270008C0F9D1FDF91CF910895CF93C82F462FDC
:1012800061E070E00E94921461E070E08C2F0E9497
:101290009B148111F9CFCF9108958F929F92AF92B5
:1012A000BF92CF92DF92EF92FF920F931F93CF9353
:1012B000DF93B82E4B018A01A22E68E270E00E94F3
:1012C0009B14C82FD0E069E270E08B2D0E949B1424
:1012D000DC2FCC27C82B9E013770CB2CD12CC6011C
:1012E000880F991FAC01425E5A4F6A01FA01808152
:1012F0009181820F931FA801420F531F4130584024
:1013000098F060E078E07B01E21AF30AA701B401EB
:101310000E94E915A8014E195F09B4016E0D7F1DE9
:10132000F6018081918102C0A801B4010E94E915F3
:10133000A1100EC0C00FD11F4D2F68E270E08B2DA1
:101340000E9492144C2F69E270E08B2D0E9492143F
:10135000DF91CF911F910F91FF90EF90DF90CF9091
:10136000BF90AF909F908F9008959F92AF92BF9241
:10137000CF92DF92EF92FF920F931F93CF93DF9361
:10138000982E8B015A01690164E270E00E949B145F
:10139000E82EF12C65E270E0892D0E949B14FE2C52
:1013A000EE24E82AE701C00FD11F9E013770E92C17
:1013B000F12CC701880F991FAC014A5E5A4F7A0180
:1013C000FA0180819181820F931FA9014C0D5D1D4F
:1013D0004130584090F000E018E0021B130BA801C8
:1013E000B5010E941316A601401B510BB501600FF9
:1013F000711FF7018081918102C0A601B5010E9491
:101400001316CC0DDD1D4D2F64E270E0892D0E9476
:1014100092144C2F65E270E0892DDF91CF911F91DE
:101420000F91FF90EF90DF90CF90BF90AF909F9083
:101430000C949214FF920F931F93CF93DF93F82E87
:10144000C0E0D0E08F2D0E94CC158C01892B21F0BB
:101450008F2D0E94CC15EC01C017D10799F7CE0152
:10146000DF91CF911F910F91FF9008953F924F927E
:101470005F926F927F928F929F92AF92BF92CF9224
:10148000DF92EF92FF920F931F93CF93DF9300D0E1
:1014900000D0CDB7DEB78091850581112AC01092AA
:1014A0006D0510926C0588EE93E0A0E0B0E08093AB
:1014B0006E0590936F05A0937005B09371058BE452
:1014C00092E090936B0580936A058EEE92E0909384
:1014D00079058093780510927A0510927B05109219
:1014E0007C0510927D0584E08093820581E08093E5
:1014F000850587E295E09093A9068093A8066CE2A3
:1015000071E080E090E00E94481C1FB7F894809141
:101510002605811190C067EB71E0FB0184912DEFEE
:1015200031E0F901449190E0880F991F88599E4F4E
:10153000FC01A591B4918C91482309F070C0EDE3B2
:10154000F1E04491F9012491FB019491992309F46C
:1015500066C0442309F455C050E0FA013197E231E6
:10156000F10508F04EC08827EE58FF4F8F4F0C94BE
:10157000FF24809180008F7707C0809180008F7D4D
:1015800003C080918000877F809380003AC084B53B
:101590008F7702C084B58F7D84BD33C08091B00049
:1015A0008F7703C08091B0008F7D8093B00029C0F9
:1015B000809190008F7707C0809190008F7D03C04D
:1015C00080919000877F809390001BC08091A00045
:1015D0008F7707C08091A0008F7D03C08091A0000D
:1015E000877F8093A0000DC0809120018F7707C076
:1015F000809120018F7D03C080912001877F80939F
:101600002001E92FF0E0EE0FFF1FE25BFE4FA591F6
:10161000B4918FB7F8949C91292B2C938FBF85E3BD
:1016200020DD8CB580618CBD8CB580648CBD84E37D
:1016300018DD83E316DD809126058F5F80932605F4
:101640001FBF249A80E590E0C9D360E880E090E075
:101650000E943C1665E58BE190E00E943C1665E532
:101660008AE190E00E943C16B8D380E090E4909329
:1016700017058093160580E090E690931F058093F0
:101680001E0580E098E4909319058093180580E08A
:1016900098E6909321058093200580E090E5909353
:1016A0001B0580931A0580E090E7909323058093B3
:1016B000220580E098E590931D0580931C0580E04D
:1016C00098E7909325058093240580E590E086D3E4
:1016D00046E050E060E072E089E090E00E9413167E
:1016E0008EEE92E09A8389831B821C821D821E8269
:1016F00044E050E0BE016D5F7F4F8FE090E00E94BC
:1017000013166BD30091A8061091A906D8019296E2
:101710001D921D921D921C929597F80116A217A278
:1017200010A611A69A961D921D921D921C929D972D
:1017300080E69AEEA0E0B0E086AB97ABA0AFB1AF89
:1017400080EA9FE0A0E0B0E082AF93AFA4AFB5AF76
:10175000D801189686E0FD01982F11929A95E9F725
:101760009801225F3F4F94E1F90111929A95E9F7B0
:10177000E0E0F2E001900D928A95E1F77801F2E461
:10178000EF0EF11CD7011C920E9463242FEC37E06E
:1017900040E050E00E94C424DC01CB010196A11D71
:1017A000B11DF80184839583A683B78380839183D9
:1017B000A283B3835801F3E4AF0EB11CC5010E94AC
:1017C000311464E470E0C5010E944514882309F4D3
:1017D00084C10E94801C2B013C01812C912CD12CB6
:1017E00043E0342E52E0C52ED7018C91833009F4AA
:1017F00004C1811121C0F80184819581A681B7813E
:101800000196A11DB11D84839583A683B7830E9491
:10181000801C641975098609970928EE33E040E0B9
:1018200050E00E94A224A90161E0C8010E941503B2
:1018300081E0D7018C93C3C0843001F5F801848125
:101840009581A681B7810196A11DB11D84839583E1
:10185000A683B7830E94801C6419750986099709BD
:1018600028EE33E040E050E00E94A224A90163E0AA
:10187000C8010E941503D701CC92A1C0813061F547
:10188000F80142AD53AD64AD75AD9E012F5F3F4F82
:10189000C8010E944F01D82EF2E08F1390C08981B9
:1018A0009A81AB81BC81F80184839583A683B78339
:1018B0000E94801C641975098609970928EE33E097
:1018C00040E050E00E94A224A90163E0C8010E9408
:1018D0001503D701DC9279C0823009F070C0F8019D
:1018E00042AD53AD64AD75AD9E012F5F3F4FC80152
:1018F0000E944F01D82EF5E08F135BC0D7013C92B8
:10190000F80182A193A1A4A1B5A1892B8A2B8B2BCD
:1019100041F484E893E0A0E0B0E082A393A3A4A301
:10192000B5A3F80186A197A1A0A5B1A5892B8A2B03
:101930008B2B61F482A193A1A4A1B5A1B695A79523
:101940009795879586A397A3A0A7B1A7F80182A52D
:1019500093A5A4A5B5A5892B8A2B8B2BA9F482A1CD
:1019600093A1A4A1B5A1AC01BD0123E07695679533
:10197000579547952A95D1F7841B950BA60BB70B66
:1019800082A793A7A4A7B5A7F80186A197A1A0A5B0
:10199000B1A586A797A7A0ABB1AB82A593A5A4A537
:1019A000B5A582AB93ABA4ABB5AB88248394912C43
:1019B0000CC0F6E08F1303C0D7011C9206C0BFEF26
:1019C000DB1203C0F7011082D12CF1E08F169104D5
:1019D00009F40ACF0E94801CDC01CB01841995090F
:1019E000A609B709F80126A937A940AD51AD2817B6
:1019F00039074A075B0708F0F7CEC50132D7F8016F
:101A000084819581A681B7810196A11DB11D848332
:101A10009583A683B7830E94801CF801FE9660839D
:101A2000718382839383F1E08F16910409F058C08B
:101A300080E590E0D3D16091A8067091A906625F1D
:101A40007F4FCE0101960E94D91B44E050E0BE01B9
:101A50006D5F7F4F8FE090E00E9413166091A806A3
:101A60007091A9066A5E7F4FCE0101960E94D91B34
:101A700044E050E0BE016D5F7F4F81E090E00E9446
:101A800013166091A8067091A9066E5E7F4FCE0175
:101A900001960E94D91B44E050E0BE016D5F7F4F6C
:101AA00085E090E00E94131698D16091A80670918D
:101AB000A906625E7F4FCE0101960E94D91B8B81E1
:101AC0009C81AD81BE818093A4069093A506A093CE
:101AD000A606B093A70681E001C080E090E001C0B7
:101AE000C40126960FB6F894DEBF0FBECDBFDF91BE
:101AF000CF911F910F91FF90EF90DF90CF90BF900B
:101B0000AF909F908F907F906F905F904F903F909D
:101B10000895EF92FF920F931F93CF93DF93EC0101
:101B2000FB0184819581E080F1800C811D81E114AD
:101B3000F104A9F00097A9F0080F191FB801CE0110
:101B400062D0882361F0288139818C819D81B70121
:101B5000820F931F0E9442271D830C8302C0CE0177
:101B600079D0CE01DF91CF911F910F91FF90EF902F
:101B70000895EF92FF920F931F93CF93DF93EC01A1
:101B80007B018A01BA013FD0811103C0CE0162D02E
:101B900007C01D830C83B701888199810E94422769
:101BA000CE01DF91CF911F910F91FF90EF9008959B
:101BB000CF92DF92EF92FF920F931F93CF93DF9319
:101BC0006C017A018B01C0E0D0E0CE15DF0589F011
:101BD000D8016D918D01D601ED91FC910190F081BC
:101BE000E02DC6011995892B11F47E0102C02196C2
:101BF000ECCFC701DF91CF911F910F91FF90EF9034
:101C0000DF90CF9008950F931F93CF93DF93EC0154
:101C100088819981009729F02A813B81261737070F
:101C200088F48B016F5F7F4F0E943B26009761F025
:101C3000998388831B830A832C813D81232B11F494
:101C4000FC01108281E001C080E0DF91CF911F9103
:101C50000F910895CF93DF93EC01888199810097CC
:101C600011F00E94A325198218821D821C821B82FA
:101C70001A82DF91CF910895FC01808191810C94AB
:101C8000A325FC0111821082138212821582148214
:101C90006115710549F0FB0101900020E9F73197CA
:101CA000AF01461B570B65CF08956115710579F09B
:101CB000FB0101900020E9F73197AF01461B570B5C
:101CC000DC01ED91FC910280F381E02D199480E01C
:101CD00090E008954F925F926F927F92EF92FF9201
:101CE0000F931F93CF93DF93CDB7DEB7A1970FB6B6
:101CF000F894DEBF0FBECDBF7C01FA01CB0119A263
:101D0000223008F42AE08E010F5D1F4F422E512C25
:101D1000612C712CBF01A30192010E94A224F90140
:101D2000CA01015011096A3014F4605D01C0695C98
:101D3000D8016C93232B242B252B61F7B801C70105
:101D4000B4DFA1960FB6F894DEBF0FBECDBFDF9112
:101D5000CF911F910F91FF90EF907F906F905F90C8
:101D60004F9008950F931F93CF93DF93EC019DDF66
:101D70008C0165E573E0CE0198DF800F911FDF9144
:101D8000CF911F910F910895CF93DF931F92CDB7FD
:101D9000DEB76983DC01ED91FC910280F381E02DD7
:101DA00041E050E0BE016F5F7F4F19950F90DF91CA
:101DB000CF910895DC01ED91FC91068CF78DE02D1B
:101DC000199591E089270895862F089581E0862747
:101DD0000895089580E090E0089508958CBD9DBD1C
:101DE00008958F929F92AF92BF92CF92DF92EF921F
:101DF000FF920F931F93CF936C015B017A01FC015B
:101E0000C485C43041F481E090E0F601938382837D
:101E100080E090E044C08A014130584010F000E07A
:101E200018E080E590E0DADF8C2F04DB4C0163E002
:101E300070E08C2F80D5873111F08C3121F4801621
:101E4000910678F302C000E010E080E590E0C6DF84
:101E50009801A50160E070E08C2F87DA60E270E005
:101E60008C2F0BDA62E070E08C2F65D584FD0EC0FC
:101E700063E070E08C2F5FD5811104C08C2F0E942D
:101E80004217C1CF80E590E0A9DFECCF40E162E0EE
:101E900070E08C2F47D5012B09F4B5CFC701CF9146
:101EA0001F910F91FF90EF90DF90CF90BF90AF9078
:101EB0009F908F900895CF92DF92FF920F931F9380
:101EC000CF93DF93FC012485243009F070C06A01B0
:101ED000EB018C01F12C8F2D0E940718811103C09A
:101EE000F801F48607C08B7F8831D1F3F394F4E0D6
:101EF000FF12F1CFF8018485843009F458C0209195
:101F00000602309107022F5F3F4F11F420E030ECC2
:101F10003093070220930602409106025091070277
:101F200020E061E0C2D7F801F4848A818F3F51F448
:101F30008B818F3F91F48C818F3F79F48D818F3F1E
:101F400061F432C0811109C08B81811106C08C817E
:101F5000811103C08D81882339F1C114D10421F18D
:101F600080E590E03BDFBE016E5F7F4F8F2D90E0FC
:101F7000982F882744E050E0845F9B4F54D6B601E9
:101F80008F2D28D564E070E08F2D77D9C8016DD5ED
:101F9000873181F061E070E080E090E00E94481CB1
:101FA000C80163D58111F2CF84E0F801848780E015
:101FB00090E002C081E090E0DF91CF911F910F91FE
:101FC000FF90DF90CF9008952F923F924F925F92B3
:101FD0006F927F928F929F92AF92BF92CF92DF9239
:101FE000EF92FF920F931F93CF93DF93CDB7DEB79E
:101FF00065970FB6F894DEBF0FBECDBF7C016B01B5
:102000003A01FB0120E080E090E06AE03191332367
:1020100009F140ED430F4A3080F4689FA001699FA9
:10202000500D1124CA01C097830F911D37FD9A9559
:102030008F3F910559F350F313C03E3289F423309A
:1020400079F0D301A20FB11D12968C932F5F80E01F
:1020500090E0DCCF233021F4F301858381E020C0C0
:10206000F70142815381648175818091AC06909122
:10207000AD06A091AE06B091AF06481759076A07A2
:102080007B0709F484C10E94801C8701085F1F4FF1
:102090006F7077277C5FC801F8D3813019F080E03A
:1020A00090E0D1C18EEE92E09A838983F70182811C
:1020B0009381A481B5818B839C83AD83BE8345E3EB
:1020C00050E0BE016F5F7F4FC80193D4892B19F494
:1020D000C12CD12C58C10E94801CF70177836683E4
:1020E0007627672776277A83698342E050E0BE012E
:1020F0006F5F7F4FC8010DD381E090E09E878D8791
:1021000042E050E0BE01635F7F4FC80102D380E030
:1021100091E09E878D8742E050E0BE01635F7F4F74
:10212000C801F7D21E861D8642E050E0BE01635F03
:102130007F4FC801EED242E050E0BE01635F7F4FA7
:10214000C801E7D242E050E0BE01635F7F4FC801A3
:10215000E0D25601F5018081882301F1F6015F018B
:102160008191811113C045018C189D081814190420
:1021700084F48F8641E050E0BE01615F7F4FC8016B
:10218000C8D2A401B601C801C4D203C08E3239F747
:10219000EACF6501FFEFCF1ADF0ADCCF1F8641E0EF
:1021A00050E0BE01615F7F4FC801B3D2C12CDD2476
:1021B000D394DE86CD8642E050E0BE01635F7F4F60
:1021C000C801A7D2DE86CD8642E050E0BE01635F43
:1021D0007F4FC8019ED2C801CED3892B09F478CF96
:1021E00063E0A62EB12CF2E06F0E711C0E94801CE1
:1021F0001B012C01C80136D218161906A4F00E9442
:10220000801CDC01CB0182199309A409B509893826
:102210009341A105B105D0F462E370E080E090E065
:102220000E94481CE7CFF701428153816481758188
:10223000808D918DA28DB38D481759076A077B0752
:1022400041F4848D958DC59721F406C02FEF3FEFA3
:1022500090C02EEF3FEF8DC0F70181A192A10C97A6
:102260000CF49BC04CE050E0BE016F5F7F4FC80193
:10227000C3D58B8190E0982F88272C81822B9A8B55
:10228000898B298130E0322F22274A81242BF701C4
:10229000468157814217530709F07CC097FF7AC0E7
:1022A0008F709270892B09F0CBC0CF80D12CDC2CA1
:1022B000CC248885C82AC114D10409F4BEC0812C5D
:1022C000912C8D8190E0982F88272E81822B881663
:1022D000990608F465C0812C912C41E050E0BE01C4
:1022E0006D5E7F4FC80188D58B89982F907C09F04F
:1022F00083C0811177C08B898111EFCF42E050E01C
:10230000BE01615F7F4FC80177D542E050E0BE015A
:10231000635F7F4FC80170D5C8018CD5C8018AD5CD
:10232000C80188D5C80186D542E050E0BE016F5E85
:102330007F4FC80161D58F8598898115914009F03B
:102340005FC02D853E853227232732272130310576
:1023500009F056C089899A898115944009F06AC0AC
:1023600044E050E0B301C8012C8B3D8B45D52C894E
:102370003D896901F1E0AF1AB10829F02FEFC216CB
:10238000D20609F433CFC8016CD2C6015CC08EEF0F
:102390009FEF59C02CEF3FEFECCF2DEF3FEFE9CF90
:1023A00041E050E0BE01635F7F4FC80125D58D85B8
:1023B00081110FC08D858111F3CFC8013BD5C801B4
:1023C00039D5C80137D5C80135D5FFEF8F1A9F0A17
:1023D00078CF8D859FEF980F9D87882359F3C8018B
:1023E00029D5F7CF8B899FEF980F9B8B882309F412
:1023F00082CFC8011FD5F6CFC8011CD51B8A7BCF61
:10240000412C512C89899A89982789279827481621
:10241000590630F4C8010ED58FEF481A580AF2CF8A
:10242000EFEF8E1A9E0A8C149D0409F056CF26EF0A
:102430003FEF9FCF27EF3FEF9CCF2AEF3FEF99CFA2
:102440002BEF3FEF96CF65960FB6F894DEBF0FBE29
:10245000CDBFDF91CF911F910F91FF90EF90DF9053
:10246000CF90BF90AF909F908F907F906F905F9034
:102470004F903F902F900895CF92DF92EF92FF926E
:102480000F931F93CF93DF93CDB7DEB7AF970FB600
:10249000F894DEBF0FBECDBF7C016A010EEE12E0E4
:1024A0001A8309831C861B8688EE93E0A0E0B0E0C7
:1024B0008D879E87AF87B88B8BE492E09A87898758
:1024C000188F0F8B198E1A8E1B8E1C8E84E089A399
:1024D0001DA30CA31EA21FA218A619A68091A406D4
:1024E0009091A506A091A606B091A7068CA79DA7DE
:1024F000AEA7BFA78B839C83AD83BE8318861F8244
:10250000AE014C5D5F4FCE0101965EDD81309105DD
:10251000B1F4D701ED91FC910684F785E02D1BA75E
:102520000AA78EA19FA1A8A5B9A58CA79DA7AEA714
:10253000BFA7A601BE01665D7F4FC7011995AF9683
:102540000FB6F894DEBF0FBECDBFDF91CF911F91C4
:102550000F91FF90EF90DF90CF90089580E3FB0103
:1025600080833296842F82958F7090E1899F4019E5
:1025700011244A3014F4405D01C0495C4293482F55
:102580008111F0CF0895CF93DF931F92CDB7DEB7BF
:102590006983DC01ED91FC910280F381E02D41E043
:1025A00050E0BE016F5F7F4F19950F90DF91CF9183
:1025B0000895FC01818D928D0895FC01848995898F
:1025C00008952EEE32E0FC0131832083FB01408927
:1025D000518962897389FC014283538364837583C3
:1025E0000895DC01ED91FC91048CF58DE02D19949A
:1025F00080E00895FC019485FB018485981303C055
:1026000081E0943009F480E0089521E0FC018485A4
:10261000843009F420E0822F08950895FC01848518
:10262000843009F07CC380E090E00895FC0184854B
:1026300094C3CF93DF931F92CDB7DEB741E050E054
:10264000BE016F5F7F4FFC01848587D31816190682
:102650001CF4898190E002C08FEF9FEF0F90DF9113
:10266000CF9108950F931F93CF93DF93CDB7DEB72C
:1026700028970FB6F894DEBF0FBECDBF8C01F801CE
:10268000818D928D892B49F0D801ED91FC910284C6
:10269000F385E02DC8011995F2CF808D40D318162F
:1026A000190654F548E050E0BE016F5F7F4FD80136
:1026B00058968C9152D39C0118161906DCF4898126
:1026C0009A81AB81BC81F801808B918BA28BB38BFB
:1026D0008D8190E0982F88272E81820F911D958BF8
:1026E000848B2F8130E0322F22278885280F311DDF
:1026F000328F218FC90102C080E090E028960FB68A
:10270000F894DEBF0FBECDBFDF91CF911F910F9127
:102710000895AF92BF92CF92DF92FF920F931F93D3
:10272000CF93DF938C015B01EA01FC01C688D78857
:10273000F08C80E590E052DB8F2D0E941A0A8C17F6
:102740009D0720F48F2D0E941A0AEC019E01A5011D
:10275000B6018F2D0E94B50940DBF8018689978963
:102760008C0F9D1F978B868BCE01DF91CF911F9190
:102770000F91FF90DF90CF90BF90AF900895CF92D0
:10278000DF92EF92FF920F931F93CF93DF93CDB71A
:10279000DEB7AF970FB6F894DEBF0FBECDBF7C019A
:1027A0006A010EEE12E01A8309831C861B8688EEEE
:1027B00093E0A0E0B0E08D879E87AF87B88B8BE475
:1027C00092E09A878987188F0F8B198E1A8E1B8E2D
:1027D0001C8E84E089A31DA30CA31EA21FA218A611
:1027E00019A68091A4069091A506A091A606B09185
:1027F000A7068CA79DA7AEA7BFA78B839C83AD839D
:10280000BE8318861F82AE014C5D5F4FCE010196DC
:10281000DBDB81309105B1F4D701ED91FC910488A7
:10282000F589E02D1BA70AA78EA19FA1A8A5B9A590
:102830008CA79DA7AEA7BFA7A601BE01665D7F4F6F
:10284000C7011995AF960FB6F894DEBF0FBECDBF86
:10285000DF91CF911F910F91FF90EF90DF90CF907C
:102860000895CF93DF93EC01888D843059F00AD31B
:10287000E88DF0E0EE0FFF1FED54FA4F1182108249
:1028800084E0888FDF91CF910895EF92FF921F939C
:10289000CF93DF93FC01208D243011F080E01AC02B
:1028A0007B01EC0110E0812FB2D3811102C0188F9F
:1028B00005C08831E1F31F5F1430A9F7888D84309B
:1028C00069F3FD86EC861A8E198E20E0A70162E07E
:1028D000ECD281E0DF91CF911F91FF90EF900895AE
:1028E0000F931F93CF93DF931F92CDB7DEB78C0169
:1028F000DC01ED91FC910084F185E02D1995892B87
:1029000049F0BE016F5F7F4FF8018485D2D1898184
:1029100090E002C08FEF9FEF0F90DF91CF911F915A
:102920000F9108959B0190E00496982F8827642FBB
:10293000820F931FA1C10F931F93CF93DF931F9219
:10294000CDB7DEB790E00496982F88278C01060F4C
:10295000171F20D18FE036D1812F34D1802F32D173
:1029600080E030D1898314D189810F90DF91CF919C
:102970001F910F910895CF93FC01C08D80E590E0E9
:102980002DDA60E270E08C2F0E943D0962E070E079
:102990008C2FD1DF84FD14C062E070E08C2FCBDF80
:1029A00083FF09C048E162E070E08C2FBBDF15DADD
:1029B00080E090E00DC011DA80E590E00FDAE6CF1C
:1029C00040E162E070E08C2FADDF07DA81E090E05B
:1029D000CF910895CF93DF93C82FD62F472F60E173
:1029E00070E0A0DF4D2F61E170E08C2FDF91CF917F
:1029F00099CFFF920F931F93CF93DF93FB01DC01DD
:102A000057961C921E9256975896FC90828181117F
:102A100009C08381811106C08481811103C0858131
:102A20008823D9F041155105C1F08A01EF0180E5F5
:102A300090E0D4D9BE016E5F7F4F2F2D30E0922FF2
:102A4000882744E050E0845F9B4FEDD0B8018F2D84
:102A5000C1DFC3D981E090E002C080E090E0DF9167
:102A6000CF911F910F91FF900895FC0184858430D0
:102A700009F0CDC280E00895CF93DF93FC01248557
:102A80002430C9F0EC01F1DF843181F0882371F04A
:102A9000883161F08C3161F4E881F9810084F1853D
:102AA000E02DCE01199521E0892B19F420E001C019
:102AB00021E0822F01C080E0DF91CF910895CF9275
:102AC000DF92EF92FF921F93CF93DF93FC01148567
:102AD000143071F1EC0180E590E080D968E070E09D
:102AE000812F0E943D0979D90BD76B017C01CE0162
:102AF000BCDF882399F061E070E080E090E0C8D608
:102B0000FFD6DC01CB018C199D09AE09BF09883EB7
:102B10009340A105B10558F38C85B4D1EC85F0E064
:102B2000EE0FFF1FED54FA4F1182108284E08C8764
:102B3000DF91CF911F91FF90EF90DF90CF9008959C
:102B40000895CF93DF931F92CDB7DEB7698361E01D
:102B5000CE0101960E94071E81E090E00F90DF9168
:102B6000CF9108951F93CF93DF93182F66E270E003
:102B7000E2DEC82FD0E067E270E0812FDCDEDC2FE0
:102B8000CC279E01282BC901DF91CF911F91089579
:102B90002C9A08952C9808951F93CF93DF93182FA4
:102BA00060E270E0C8DEC82FD0E061E270E0812F03
:102BB000C2DEDC2FCC279E01282BC901DF91CF91EB
:102BC0001F9108958EBD00000DB407FEFDCF8EB598
:102BD0000895CF92DF92EF92FF920F931F93CF93BE
:102BE000DF93EC017A018B016C01C40ED51ECC156C
:102BF000DD0579F0CFDF8FE0E5DF8D2FE3DF8C2F70
:102C0000E1DF219680E0DEDFF80181938F01C0DFF4
:102C1000EECFC701DF91CF911F910F91FF90EF9001
:102C2000DF90CF900895CF92DF92EF92FF920F93B3
:102C30001F93CF93DF93EC017A018B016C01C40EDB
:102C4000D51ECC15DD0571F0A5DF80EFBBDF8D2F24
:102C5000B9DF8C2FB7DF2196F80181918F01B2DFA8
:102C600097DFEFCFC701DF91CF911F910F91FF90B9
:102C7000EF90DF90CF9008951F93CF93DF931F9233
:102C80001F92CDB7DEB7182F6A83998383DF80EF59
:102C900099DF9981892F96DF812F94DF6A81862FB2
:102CA00091DF76DF81E00F900F90DF91CF911F9140
:102CB00008951F93CF93DF931F921F92CDB7DEB776
:102CC000182F80E590E069837A8388D821E041E07D
:102CD00050E069817A81812F0E944D097ED881E080
:102CE00090E00F900F90DF91CF911F910895CF93B7
:102CF000DF931F92CDB7DEB7FC01218D328D232BE0
:102D000041F0BE016F5F7F4F808DD3DF898190E0FE
:102D100002C08FEF9FEF0F90DF91CF910895FF9248
:102D20000F931F93CF93DF93F82E80E590E056D852
:102D3000C0E0D0E08F2D16DF8C01892B19F08F2D8C
:102D400011DFEC01C017D107A9F747D8CE01DF91F9
:102D5000CF911F910F91FF900895AF92BF92CF92A4
:102D6000DF92EF92FF921F93CF93DF93182F5B01B7
:102D70007A0180E590E032D8C0E0D0E0812FF2DE29
:102D80006C01892B19F0812FEDDEEC01CC15DD05EE
:102D9000A9F7209791F463E070E0812FCCDD8431B6
:102DA000F1F08823E1F0C1E0D0E08C3111F4C0E013
:102DB000D0E0D195C195D10912C0EC16FD060CF4F6
:102DC000E7011C161D065CF420E0AE01B501812F61
:102DD0000E944D0960E470E0812F0E943D090E942D
:102DE000ED0ECE01DF91CF911F91FF90EF90DF901C
:102DF000CF90BF90AF900895CF93DF93FC01218DCA
:102E0000328D2115310519F48FEF9FEF10C0EC01C1
:102E10004217530708F0A901888D9FDF181619067D
:102E20009CF7298D3A8D281B390B3A8F298FDF911A
:102E3000CF9108950F931F93CF93DF931F92CDB738
:102E4000DEB7FC01218D328D232B59F08C0141E03E
:102E500050E0BE016F5F7F4F808D7FDF181619062F
:102E60001CF08FEF9FEF08C0F801818D928D0197C4
:102E7000928F818F898190E00F90DF91CF911F9188
:102E80000F910895CF93C82F80E590E00E94EE0E39
:102E900060E170E08C2F0E943D094FEF62E070E02E
:102EA0008C2F40DDCF910C94ED0EFF920F931F936A
:102EB000CF93DF931F921F92CDB7DEB7F82E8A0112
:102EC0002A836983DFDF80E590E00E94EE0E2A818D
:102ED0006981462F422B60E070E08F2D23DD0115C4
:102EE000110551F40091BB051091BC050F5F1F4FF8
:102EF0001093BC050093BB05412F64E070E08F2D5B
:102F000011DD402F65E070E08F2D0CDD61E070E099
:102F10008F2D0E943D090E94ED0E81E00F900F90D1
:102F2000DF91CF911F910F91FF900895BF92CF92A3
:102F3000DF92EF92FF920F931F93CF93DF9300D016
:102F400000D0CDB7DEB7FC01208D243009F04EC093
:102F50006A017B018C01B12C63E070E08B2DEBDC0E
:102F6000811103C0F801B08E06C08831D9F3B39443
:102F7000F4E0BF12F1CFF801808D8430B9F196E012
:102F8000ECE7F2E0DE01119601900D929A95E1F7DF
:102F9000F70193819F779C8394819D8395819E8384
:102FA000B7016E5F7F4F90E0982F882744E050E094
:102FB000845F9B4F38DEB601F801808D0BDDF80190
:102FC000808D90E0982F882746E050E0BE016F5F2B
:102FD0007F4F8A5F9B4F27DEF801128E118E20E80B
:102FE000A60162E0808D61DF81E001C080E026966D
:102FF0000FB6F894DEBF0FBECDBFDF91CF911F910A
:103000000F91FF90EF90DF90CF90BF9008951F93A6
:10301000CF93DF931F92CDB7DEB7182F80E590E0F6
:103020000E94EE0E63E070E0812F85DC89830E94B0
:10303000ED0E89810F90DF91CF911F910895CF936D
:10304000DF93DC014E5F5F4FFC019F012A1B3B0BAE
:103050009191992339F0EB01C40FD51F98834F5FED
:103060005F4FF3CFCA01821B930B680F791FFB01DF
:103070003297308331962083CA01DF91CF91089532
:10308000CF92DF92EF92FF920F931F93CF93DF9334
:1030900000D01F92CDB7DEB79A01E0E0922F9F7764
:1030A000220F232F221F330B31952115310509F0F3
:1030B000906801E00E0FA1E0B0E0AC0FBD1FAE0FB5
:1030C000B11DFD0190832115310511F0E02FE6CFF0
:1030D00010E0DB01A01BB10B14968C93FE0131961E
:1030E0006F0180E090E08017910764F4F601F190A1
:1030F0006F019C01201B310B260F371FF901F58250
:103100000196F1CF8091B0069091B1064F5F5F4F6D
:10311000040F151FFC0120813181F90122813381C7
:10312000A801BD01F90119957C01EAD36093340728
:1031300070933507809336079093370781E0E01648
:10314000F10609F080E00F900F900F900F90DF9143
:10315000CF911F910F91FF90EF90DF90CF90089546
:103160008091B0069091B106009759F1DC01ED9184
:10317000FC910688F789E02D1995811124C0809172
:103180004B0790914C07892BE1F48DEF9FEF9093C3
:103190004C0780934B078091B0069091B106DC01FB
:1031A000ED91FC910680F781E02D19958091B00694
:1031B0009091B106DC01ED91FC910488F589E02D38
:1031C000199580E0089581E008950F931F93CF93A0
:1031D000DF93FC01248135812115310519F4FB01B0
:1031E000108211C0EA0121972C173D0708F4E9016C
:1031F0008B01FC0160817181AE01C8010E944927E9
:10320000C00FD11F1882DF91CF911F910F910895A8
:103210009F92AF92BF92CF92DF92EF92FF920F9365
:103220001F93CF93DF9300D000D0CDB7DEB7FC0162
:103230009681992309F4E1C06B017F019150968337
:103240005F0182E0A80EB11CC5010E942304D701D2
:103250001296ED91FC91139780818B3521F08B377D
:1032600009F498C0A2C0F70100811181B80184E07F
:1032700090E00E941506009751F0DC0111961C9316
:103280000E9313961C921E9212978C0111C080917E
:10329000700781110BC010926D0710926C0710928D
:1032A0006F0710926E0781E0809370070CE617E0BD
:1032B0006BE5C5010E946504882309F44BC06DE5E8
:1032C000C5010E946504811156C086E0982E1A82BD
:1032D0001982BE016F5F7F4FC7019ADF8823D1F14A
:1032E000F8016081718188E090E00E941506DC01A0
:1032F000892B39F011961C921E9213961C921E92E5
:103300001297F801228133812115310551F0F9011D
:1033100080819181009711F09C01F9CFB183A08346
:1033200003C0F801B383A2831097A1F0FE01319688
:103330001296892D01900D928A95E1F76DE5C501F0
:103340000E946504811117C06CE2C5010E946504EA
:103350008111BDCF8091700781110BC010926D0754
:1033600010926C0710926F0710926E0781E08093A5
:1033700070070CE617E0D8018D919C91892B11F410
:1033800010E033C086E090E0F601918380831383E0
:1033900002832AC0C7010E942406DC012D913C91C2
:1033A000232B71F327E030E01AC011E0873219F0C7
:1033B000823209F010E0C7010E948304009701F3F4
:1033C000112359F022E030E0D60111963C932E9360
:1033D00013969C938E93129708C021E030E0F6017B
:1033E000318320839383828311E0D70116968C91D9
:1033F00016978F5F16968C9301C010E0812F26964A
:103400000FB6F894DEBF0FBECDBFDF91CF911F91F5
:103410000F91FF90EF90DF90CF90BF90AF909F9073
:103420000895CF92DF92EF92FF92CF93DF93EC015A
:1034300067D26B017C018091B0069091B106DC01EE
:10344000ED91FC910084F185E02D1995892B71F4A3
:1034500057D2AB01BC014C195D096E097F0948398F
:103460005A436105710538F380E00DC08091B006C4
:103470009091B106DC01ED91FC910284F385E02D81
:103480001995888381E0DF91CF91FF90EF90DF90D5
:10349000CF900895FC01538D448D252F30E0842F6B
:1034A00090E0821B930B541710F0CF96089501976C
:1034B0000895FC01918D828D981761F0828DDF0156
:1034C000A80FB11D5D968C91928D9F5F9F73928F17
:1034D00090E008958FEF9FEF0895FC01918D828D0C
:1034E000981731F0828DE80FF11D858D90E00895D9
:1034F0008FEF9FEF0895FC01918D228D892F90E031
:10350000805C9F4F821B91098F73992708958DEBE3
:1035100095E0F1DF21E0892B09F420E0822F089566
:10352000FC01848DDF01A80FB11DA35ABF4F2C9160
:10353000848D90E001968F739927848FA689B7892F
:103540002C93A089B1898C9180648C93938D848D08
:10355000981306C00288F389E02D80818F7D8083D7
:103560000895EF92FF920F931F93CF93DF93EC0197
:1035700081E0888F9B8D8C8D981305C0E889F9892F
:10358000808185FD23C0F62E0B8D10E00F5F1F4F4D
:103590000F731127E02E8C8DE8120BC00FB607FCBD
:1035A000FACFE889F989808185FFF5CFCE01B8DFB0
:1035B000F2CF8B8DFE01E80FF11DE35AFF4FF08231
:1035C0000B8FEA89FB898081806207C0EE89FF89C1
:1035D0006083E889F98980818064808381E090E05C
:1035E000DF91CF911F910F91FF90EF900895CF93AE
:1035F000DF93EC01888D8823C1F0EA89FB89808103
:1036000085FD05C0A889B9898C9186FD0EC00FB6CD
:1036100007FCF5CF808185FFF2CFA889B9898C910D
:1036200085FFEDCFCE017CDFE8CFDF91CF9108950C
:1036300080E090E0892B19F06ADF811125C080E0DD
:1036400090E0892B41F080E090E0892B21F00E94EE
:10365000000081111CC080E090E0892B41F080E0E7
:1036600090E0892B21F00E940000811113C080E0BE
:1036700090E0892BA1F080E090E0892B81F00E94FE
:10368000000081110AC008950E940000D8CF0E9456
:103690000000E1CF0E940000EACF0C9400000895E2
:1036A0003FB7F8948091220890912308A0912408B4
:1036B000B091250826B5A89B05C02F3F19F00196AB
:1036C000A11DB11D3FBFBA2FA92F982F8827820FA8
:1036D000911DA11DB11DBC01CD0142E0660F771FF8
:1036E000881F991F4A95D1F7089585ED8093BC00F6
:1036F0008091BC0084FDFCCF1092F70708950895D7
:103700008FEF9FEF08958FEF9FEF08958091AE07A1
:1037100090E091958195910908958F929F92AF9233
:10372000BF92CF92DF92EF92FF920F931F93CF93AE
:10373000DF937C01EB016C0182E0C80ED11C4701D4
:10374000E5E08E0E911C00E010E0F60141916F0162
:1037500050E060E070E02AE0CE010E946A0E5C0159
:10376000E881F9810190F081E02D6EE2CE0119959A
:103770008A0D9B1D080F191FC814D90431F7F701D2
:10378000458150E060E070E02AE0CE010E946A0EC0
:10379000800F911FDF91CF911F910F91FF90EF90BC
:1037A000DF90CF90BF90AF909F908F9008950E9430
:1037B0001F272EEE32E0FC0131832083FB01408184
:1037C000518162817381FC014283538364837583D9
:1037D00008951F920F920FB60F9211240BB60F92FD
:1037E0002F933F934F935F936F937F938F939F9309
:1037F000AF93BF93EF93FF938DEB95E091DEFF9135
:10380000EF91BF91AF919F918F917F916F915F9158
:103810004F913F912F910F900BBE0F900FBE0F90C5
:103820001F9018951F920F920FB60F9211240BB68E
:103830000F922F938F939F93EF93FF93E091CD057A
:10384000F091CE058081E091D305F091D40582FD01
:1038500012C090818091D6058F5F8F732091D7051C
:10386000821751F0E091D605F0E0E354FA4F958FBE
:103870008093D60501C08081FF91EF919F918F9138
:103880002F910F900BBE0F900FBE0F901F901895A9
:103890008F929F92AF92BF92CF92DF92EF92FF9260
:1038A0006B017C01FDDE4B015C01C114D104E1041C
:1038B000F104E9F0F5DEDC01CB0188199909AA09C8
:1038C000BB09883E9340A105B10578F321E0C21AF7
:1038D000D108E108F10888EE880E83E0981EA11C4B
:1038E000B11CC114D104E104F10421F7DECFFF9033
:1038F000EF90DF90CF90BF90AF909F908F90089502
:103900002FB7F89460911E0870911F0880912008CD
:10391000909121082FBF08951F920F920FB60F921A
:1039200011242F933F938F939F93AF93BF938091D5
:103930001E0890911F08A0912008B0912108309195
:103940001D0823E0230F2D3720F40196A11DB11D82
:1039500005C026E8230F0296A11DB11D20931D0866
:1039600080931E0890931F08A0932008B09321080D
:103970008091220890912308A0912408B0912508F5
:103980000196A11DB11D8093220890932308A09356
:103990002408B0932508BF91AF919F918F913F91DB
:1039A0002F910F900FBE0F901F9018951F920F929E
:1039B0000FB60F9211240BB60F922F933F934F9394
:1039C0005F936F937F938F939F93AF93BF93EF9387
:1039D000FF938091B900887F803609F49CC068F518
:1039E000883209F45BC090F4803109F454C038F493
:1039F000882309F4F6C0883009F44DC0F5C0883139
:103A000009F44CC0803209F45DC0EEC0803409F482
:103A100068C048F4803309F455C0883309F0E4C025
:103A20008093F607D8C0803509F44FC0883509F473
:103A30005DC0883409F0D8C0D6C0883909F4C7C041
:103A4000A8F4883709F467C038F4883609F463C0ED
:103A5000803709F460C0C8C0883809F4B8C080391C
:103A600009F45FC0803809F0BFC05BC0803B09F437
:103A700086C038F4803A09F466C0883A09F47FC0F9
:103A8000B3C0803C09F4A7C0883C09F4A4C0883BBB
:103A900009F48AC0A9C080911C0810C090911B082D
:103AA00080911A08981770F5E0911B0881E08E0F3D
:103AB00080931B08F0E0E650F84F80818093BB00B4
:103AC00085EC86C08093F6078EC0E0911B0881E0EC
:103AD0008E0F80931B088091BB00F0E0E650F84FFA
:103AE000808390911B0880911A086EC0E0911B089A
:103AF00081E08E0F80931B088091BB00F0E0E650C0
:103B0000F84F80838091F90781116DC081E0809327
:103B1000F80784EA61C083E08093F7071092F50705
:103B2000CFCF8091F507803208F051C0E091F507C2
:103B300081E08E0F8093F5078091BB00F0E0EB529F
:103B4000F84F8083BDCF85EC8093BC001092F707BF
:103B50008091F507803230F4E091F507F0E0EB5208
:103B6000F84F10826091F50770E0E091D307F09173
:103B7000D40785ED97E019951092F50735C084E0DC
:103B80008093F7071092D2071092D107E091CF07E8
:103B9000F091D00719958091D107811105C081E07E
:103BA0008093D1071092AF07E091D20781E08E0F8A
:103BB0008093D207F0E0E155F84F80818093BB00FD
:103BC0009091D2078091D107981708F479CF85E8B2
:103BD0008093BC0009C085EC8093BC001092F7076D
:103BE00003C01092F60781DDFF91EF91BF91AF9175
:103BF0009F918F917F916F915F914F913F912F9105
:103C00000F900BBE0F900FBE0F901F901895409114
:103C1000D107262F30E0240F311D21323105DCF48D
:103C20002091F7072430C9F4FC0180E090E086176A
:103C300058F43091D1072191DC01A155B84FA30F61
:103C4000B11D2C930196F3CF8091D107680F60933B
:103C5000D10780E0089581E0089582E00895CF9330
:103C6000DF931F921F92CDB7DEB7CB01642F49833C
:103C70005A83CDDF4981842F5A81952F0F900F9061
:103C8000DF91CF9108958AE597E00E943C0E80E68F
:103C900097E00C943C0ECF93DF93CDB7DEB76F97D0
:103CA0000FB6F894DEBF0FBECDBF789484B58260A6
:103CB00084BD84B5816084BD85B5826085BD85B5D0
:103CC000816085BD80916E00816080936E0010924E
:103CD00081008091810082608093810080918100C9
:103CE000816080938100809180008160809380005A
:103CF0008091B10084608093B1008091B0008160B8
:103D00008093B000809191008260809391008091B7
:103D100091008160809391008091900081608093F8
:103D200090008091A10082608093A1008091A10009
:103D300081608093A1008091A00081608093A000A9
:103D40008091210182608093210180912101816015
:103D500080932101809120018160809320018091D6
:103D60007A00846080937A0080917A0082608093E8
:103D70007A0080917A00816080937A0080917A0045
:103D8000806880937A001092C10010929E06109273
:103D90009F061092A0061092A10610925C06109247
:103DA0005D0610925E0610925F06AADD6B017C0133
:103DB0004B015C0128EB820E2BE0921EA11CB11C72
:103DC0009FDD6C157D058E059F0528F086169706EC
:103DD000A806B906A8F78DEB95E090939D06809311
:103DE0009C06E091CD05F091CE0582E08083E091C4
:103DF000C905F091CA051082E091CB05F091CC0580
:103E000080E180831092D505E091D105F091D20533
:103E100086E08083E091CF05F091D00580818061BC
:103E20008083E091CF05F091D00580818860808308
:103E3000E091CF05F091D005808180688083E0918A
:103E4000CF05F091D00580818F7D808359DD60930F
:103E50005C0670935D0680935E0690935F0666E451
:103E600073E080919C0690919D060E94550E48DD5E
:103E70006B017C014B015C013AE0830E911CA11C9B
:103E8000B11C3EDD6C157D058E059F0528F086165C
:103E90009706A806B906A8F781E080937006E0911E
:103EA000CD05F091CE0582E08083E091C905F091C7
:103EB000CA051082E091CB05F091CC058FEC808390
:103EC0001092D505E091D105F091D20586E080836E
:103ED000E091CF05F091D005808180618083E091F1
:103EE000CF05F091D005808188608083E091CF0577
:103EF000F091D005808180688083E091CF05F091BA
:103F0000D00580818F7D808388E593E0909346077C
:103F1000809345078BE597E0909348078093470788
:103F20008EE098E090933E0780933D070E94360A0A
:103F30008EEE92E09C8B8B8B1D8A1E8A1F8A188EB8
:103F400080E590E00E94EE0E44E050E0BE016B5E22
:103F50007F4F8FE090E00E94E9150E94ED0E8D8961
:103F60009E892F89388D1F923F931F922F931F9206
:103F70009F931F928F938FE692E09F938F938DE88C
:103F800095E09F938F9394D76DE875E08E010F5F56
:103F90001F4FC8010E94410E65E673E0CE014996AD
:103FA0000E94410EB801CE0149960E94890D0E94DF
:103FB0002809CE0149960E943C0EC8010E943C0E81
:103FC0000E94ED044DB75EB7445F5F4F0FB6F894A3
:103FD0005EBF0FBE4DBF882319F06BE773E002C0D0
:103FE00069E973E08DEB95E00E94B20E6DEB73E032
:103FF0008DEB95E00E94B20E7DEF272E33243A948C
:104000007FDC672B682B692B39F47ADC6230710511
:104010008105910508F40EC173DC6093AF057093C0
:10402000B0058093B1059093B2058090AB05909058
:10403000AC05A090AD05B090AE05681579058A0570
:104040009B0540F46093AB057093AC058093AD0580
:104050009093AE058090AB059090AC05A090AD0517
:10406000B090AE059B01AC01281939094A095B09DA
:1040700049015A013AEF83169104A104B10408F4EE
:10408000D9C06093AB057093AC058093AD05909358
:10409000AE0584EF91E0A0E0B0E0809368069093D5
:1040A0006906A0936A06B0936B0610926C06109294
:1040B0006D0610926E0610926F06809160069091C8
:1040C0006106A0916206B0916306809364069093A6
:1040D0006506A0936606B093670612DC60936006DF
:1040E00070936106809362069093630609DC609387
:1040F0005C0670935D0680935E0690935F0600DC1D
:104100004B015C0164ED73E080919C0690919D06EB
:104110000E94550E2AE041E050E060E070E080919E
:104120009C0690919D060E946A0E6BED73E0809153
:104130009C0690919D060E94550E2AE0B501A401AF
:1041400080919C0690919D060E946A0E6DED73E031
:1041500080919C0690919D060E94550E809160066C
:1041600090916106A0916206B0916306B501A40129
:10417000481B590B6A0B7B0B2AE080919C0690919F
:104180009D060E946A0E6DED73E080919C069091F1
:104190009D060E94550E4091600650916106609107
:1041A0006206709163068091640690916506A09105
:1041B0006606B0916706481B590B6A0B7B0B2AE019
:1041C00080919C0690919D060E946A0E6FED73E0AF
:1041D00080919C0690919D060E94550E91DBAB014B
:1041E000BC012AE080919C0690919D060E946A0E77
:1041F00061EE73E080919C0690919D060E94B20E44
:104200007FDB2B013C014B015C0195E0890E911C89
:10421000A11CB11C75DB641575058605970508F0B2
:1042200011C26EDB60936006709361068093620634
:104230009093630665DB8090A7059090A805A090F9
:10424000A905B090AA05DC01CB0188199909AA0932
:10425000BB0981319742A105B10508F4B1C050DB1B
:104260006093A7057093A8058093A9059093AA056C
:104270002091A5053091A6052F5F3F4F3093A605ED
:104280002093A5058091A3059091A4050196909394
:10429000A4058093A305253631058CF068EE73E004
:1042A0008DEB95E00E94B20E8DE497E00E945F15C1
:1042B0000E94360A1092A6051092A50581C0893881
:1042C0009341D4F066E174E08DEB95E00E94B20E6C
:1042D0001092A4051092A30568EE73E080E090E0D0
:1042E000D7DA98E088E10FB6F894A895809360003B
:1042F0000FBE90936000FFCF0E94B01881115AC08A
:104300000E94ED0481114FC08091A1059091A205FA
:104310001C8A1B8A1E8A1D8A188E1F8A4AE0B801D1
:10432000DED2F80101900020E9F73197AF01401B80
:10433000510BB801CE0143960E94B90D69E374E0B8
:10434000C8010E94410EBE016D5E7F4FC8010E94F0
:10435000890D0E942809C8010E943C0ECE01439697
:104360000E943C0E8091A1059091A2050196909328
:10437000A2058093A10506971CF11092A205109248
:10438000A10563E774E08DEB95E00E94B20E8DE429
:1043900097E00E945F150E94360A68EE73E080E0A5
:1043A00090E076DA0DC01092A2051092A1056AE99C
:1043B00074E002C06CEB74E08DEB95E00E94B20EED
:1043C0000E94B018882309F43AC19ADA4B015C01C3
:1043D0008091380790913907A0913A07B0913B0737
:1043E000A5019401281B390B4A0B5B0BDA01C901AB
:1043F00089399A43A105B105A8F4809134079091B9
:104400003507A0913607B0913707A5019401281B05
:10441000390B4A0B5B0BDA01C90189399A43A105B3
:10442000B105C8F120913C078091B0069091B1068A
:10443000222371F04CEF5FEF50934C0740934B07F2
:10444000DC01ED91FC910488F589E02D1995F7C008
:10445000B0ECB093B2061092B306DC01ED91FC9182
:104460000280F381E02D42E050E062EB76E01995A6
:104470008092340790923507A0923607B0923707A2
:104480008092380790923907A0923A07B0923B0782
:10449000B1E0B0933C078091B0069091B106DC0189
:1044A000ED91FC910084F185E02D1995892B09F49B
:1044B000C6C0C8010E9450083C01892B09F4BFC046
:1044C0008092380790923907A0923A07B0923B0742
:1044D000F090B2068F2D807F803309F095C0409018
:1044E0003D0750903E074114510409F4A8C0CDB6D1
:1044F000DEB6E981F0E0DF01A055B94F13964C918B
:10450000139750E0542F442714968C91480F511D57
:10451000CA0101962DB73EB7281B390B0FB6F89488
:104520003EBF0FBE2DBF8DB79EB70196BC0120E0E8
:1045300030E02417350769F0D901AE0FBF1FA05531
:10454000B94F1596EC90DB01ED92BD012F5F3F4F07
:10455000F0CFDC01A20FB31F1C92BF2DB670BF8F2E
:10456000B230F1F5B9016E0F7F1FDB01A055B94FD5
:104570001596EC901597F12CFE2CEE2416964C9186
:10458000E40EF11C4BEF5FEF4E1B5F0B421B530B16
:10459000460D571D6954794FF2011995F0E4F093D7
:1045A000B2062F8D2093B306F092B406E092B506C2
:1045B0008091B0069091B106DC01ED91FC910280F2
:1045C000F381E02D44E050E062EB76E019958092B3
:1045D000340790923507A0923607B09237070EC085
:1045E000A1014E1B5F0B421B530B460D571D2E0F97
:1045F0003F1FB9016B54794FF20119950FB6F8942A
:10460000DEBE0FBECDBE1BC0803CA9F4F0EDF09322
:10461000B2061092B3068091B0069091B106DC010B
:10462000ED91FC910280F381E02D42E050E062EBDD
:1046300076E0199504C0803D11F410923C070E9469
:10464000181BDECC86169706A806B90608F0E2CD40
:10465000E8CDCF92DF92EF92FF92CF93DF93E8E71E
:10466000F7E0CEEED2E0D183C083128213821482AF
:104670001582EDEBF5E01382128288EEC82E83E0FE
:10468000D82EE12CF12CC482D582E682F78286E80E
:1046900092E09183808385EC90E09587848784EC19
:1046A00090E09787868780EC90E0918B808B81ECFF
:1046B00090E0938B828B82EC90E0958B848B86ECE0
:1046C00090E0978B868B118E128E138E148EEAE5F6
:1046D000F6E01682178210861186128613861486DB
:1046E000158616861786108A118A128A138A148AEA
:1046F000158AEEE7F7E013821282C482D582E68241
:10470000F78288E992E091838083EAE8F7E0D18339
:10471000C0831282138214821582E0E9F7E0D1830C
:10472000C0831282138214821582E6E9F7E0D183F6
:10473000C0831282138214821582ECE9F7E0D183E0
:10474000C0831282138214821582E2EAF7E0D183D9
:10475000C0831282138214821582E2EAF6E0D183CA
:10476000C0831282138214821582EAEAF6E0D183B2
:10477000C0831282138214821582E8EAF7E0D183A3
:10478000C0831282138214821582E6E6F7E0D18399
:10479000C08312821382148215826CED74E080E66D
:1047A00097E00E94410E63EF74E08AE597E00E9473
:1047B000410EEDE4F7E013821282C482D582E682D4
:1047C000F78288EC92E09183808384E08487D093A1
:1047D0004007C0933F071092410710924207109282
:1047E0004307109244078FEF9FEF90934C078093FD
:1047F0004B0788E593E090934607809345078BE548
:1048000097E090934807809347078EE098E0909355
:104810003E0780933D07F093B106E093B0061092F7
:104820004A0710924907DF91CF91FF90EF90DF90F8
:10483000CF9008958F929F92AF92BF92CF92DF92C6
:10484000EF92FF92CF93DF93EC01688179818A81A7
:104850009B81611571058105910521F464E279ED73
:104860008BE597E02DE133EF41E050E08DD0490139
:104870005A019B01AC01A7EAB1E4A2D06B017C0113
:10488000ACEEB4EFA5019401A7D0DC01CB018C0DF7
:104890009D1DAE1DBF1DB7FF03C00197A109B04804
:1048A00088839983AA83BB83BC01CD019F77DF9165
:1048B000CF91FF90EF90DF90CF90BF90AF909F90FF
:1048C0008F900895B7CF88E092E0B4CF609308024C
:1048D0007093090280930A0290930B020895BB27FC
:1048E0004A3031F4992322F4BDE2909581959F4F8F
:1048F00001C0BB27FB015527AA27880F991FAA1FB4
:10490000A41710F0A41B83955051B9F7A05DAA33EA
:1049100008F0A95DA193009779F7B111B1931192B5
:10492000CB0100C0DC01FC01672F71917723E1F717
:10493000329704C07C916D9370836291AE17BF076C
:10494000C8F30895A1E21A2EAA1BBB1BFD010DC0DE
:10495000AA1FBB1FEE1FFF1FA217B307E407F5072F
:1049600020F0A21BB30BE40BF50B661F771F881F0B
:10497000991F1A9469F760957095809590959B01A1
:10498000AC01BD01CF010895052E97FB16F40094EC
:104990000FD057FD05D0D6DF07FC02D046F408C083
:1049A00050954095309521953F4F4F4F5F4F08955B
:1049B00090958095709561957F4F8F4F9F4F08958B
:1049C0000FD0A59F900DB49F900DA49F800D911DB9
:1049D00011240895B7FFF4CFF3DF821B930B0895E2
:1049E000A29FB001B39FC001A39F700D811D112430
:1049F000911DB29F700D811D1124911D0895EE0F20
:104A0000FF1F881F8BBF0790F691E02D199469272F
:104A1000962769277827872778270895CF93DF93EC
:104A20008230910510F482E090E0E0912808F09146
:104A3000290820E030E0C0E0D0E0309711F140815B
:104A4000518148175907C0F04817590761F482810E
:104A50009381209719F09B838A832BC09093290818
:104A60008093280826C02115310519F042175307F5
:104A700018F49A01BE01DF01EF010280F381E02DFD
:104A8000DCCF2115310509F1281B390B2430310504
:104A900090F412968D919C9113976115710521F0F8
:104AA000FB019383828304C0909329088093280894
:104AB000FD01329644C0FD01E20FF31F81939193F3
:104AC000225031092D933C933AC020912608309111
:104AD0002708232B41F420910E0230910F023093CE
:104AE00027082093260820910C0230910D022115F1
:104AF000310541F42DB73EB740911002509111029B
:104B0000241B350BE0912608F0912708E217F307E4
:104B1000A0F42E1B3F0B2817390778F0AC014E5F2D
:104B20005F4F2417350748F04E0F5F1F509327083B
:104B3000409326088193919302C0E0E0F0E0CF011A
:104B4000DF91CF9108950F931F93CF93DF93009739
:104B500009F48CC0FC01329713821282009128085C
:104B6000109129080115110581F420813181820FEE
:104B7000931F20912608309127082817390779F5C7
:104B8000F0932708E093260871C0D80140E050E078
:104B9000AE17BF0750F412962D913C911397AD01BB
:104BA0002115310509F1D901F3CF9D01DA013383D4
:104BB000228360817181860F971F8217930769F4A2
:104BC000EC0128813981260F371F2E5F3F4F31833B
:104BD00020838A819B8193838283452B29F4F093E0
:104BE0002908E093280842C01396FC93EE9312978D
:104BF000ED01499159919E01240F351FE217F307EA
:104C000071F480819181840F951F029611969C9377
:104C10008E938281938113969C938E931297E0E0FA
:104C2000F0E0D80112968D919C911397009719F09E
:104C3000F8018C01F6CF8D919C9198012E5F3F4F2A
:104C4000820F931F209126083091270828173907D3
:104C500069F4309729F4109229081092280802C0AC
:104C6000138212821093270800932608DF91CF91B8
:104C70001F910F9108956F927F928F929F92AF92A2
:104C8000BF92CF92DF92EF92FF920F931F93CF9339
:104C9000DF93EC01009781F4CB01DF91CF911F915D
:104CA0000F91FF90EF90DF90CF90BF90AF909F90CB
:104CB0008F907F906F90B2CEFC01E60FF71F9C01A2
:104CC00022503109E217F30708F4A8C0D9010D9169
:104CD0001C91119706171707A8F00530110508F465
:104CE0009BC0C80104978617970708F495C0025027
:104CF0001109061B170B019311936D937C93CF0140
:104D000022DF8AC05B01A01AB10A4C01800E911EFD
:104D1000A0912808B091290840E050E0E12CF12C46
:104D2000109709F44AC0A815B905D1F56D907C908B
:104D30001197630182E0C80ED11CCA14DB0480F114
:104D4000A3014A195B096A0182E0C80ED11C1296C0
:104D5000BC9012971396AC91B5E0CB16D10440F0FD
:104D6000B282A38351834083D9016D937C930AC09F
:104D70000E5F1F4FC301800F911FF9019183808344
:104D8000EB2DFA2FE114F10431F0D7011396FC93C7
:104D9000EE93129741C0F0932908E09328083CC095
:104DA0008D919C9111974817590708F4AC017D012A
:104DB00012960D90BC91A02DB3CF809126089091B2
:104DC000270888159905E1F446175707C8F480911C
:104DD0000C0290910D02009741F48DB79EB740915F
:104DE000100250911102841B950BE817F907B0F4DB
:104DF000F0932708E0932608F901718360830CC0C3
:104E0000CB010CDE7C01009749F0A801BE0128D03F
:104E1000CE0199DEC70104C0CE0102C080E090E05F
:104E2000DF91CF911F910F91FF90EF90DF90CF9086
:104E3000BF90AF909F908F907F906F90089581E08A
:104E400090E0F894FEC2FB01DC0104C08D9101905A
:104E5000801921F441505040C8F7881B990B0895E0
:104E6000FB01DC0102C001900D9241505040D8F787
:104E70000895FB01DC018D91019080190110D9F397
:104E8000990B0895FB01DC0101900D920020E1F7E0
:104E90000895FB01DC014150504048F001900D9213
:104EA0000020C9F701C01D9241505040E0F708951D
:104EB0000F931F93CF93DF93CDB7DEB72E970FB627
:104EC000F894DEBF0FBECDBF0E891F8986E08C83AC
:104ED0001A8309838FEF9FE79E838D83AE01465E21
:104EE0005F4F688D798DCE01019611D02F81388565
:104EF000F801E20FF31F10822E960FB6F894DEBF72
:104F00000FBECDBFDF91CF911F910F9108952F92CA
:104F10003F924F925F926F927F928F929F92AF9249
:104F2000BF92CF92DF92EF92FF920F931F93CF9396
:104F3000DF93CDB7DEB72C970FB6F894DEBF0FBE68
:104F4000CDBF7C016B018A01FC011782168283812F
:104F500081FFB0C1CE0101964C01F7019381F601AA
:104F600093FD859193FF81916F01882309F49EC180
:104F7000853239F493FD859193FF81916F018532DC
:104F800021F4B70190E0C7D1E8CF512C312C20E0BB
:104F90002032A0F48B3269F030F4803259F0833241
:104FA00069F420612CC08D3239F0803339F42160EE
:104FB00026C02260246023C0286021C027FD27C0AE
:104FC00030ED380F3A3078F426FF06C0FAE05F9EE5
:104FD000300D1124532E13C08AE0389E300D112459
:104FE000332E20620CC08E3221F426FD5FC1206476
:104FF00006C08C3611F4206802C0883641F4F601F0
:1050000093FD859193FF81916F018111C1CF982FFD
:105010009F7D9554933028F40C5F1F4FFFE3F98375
:105020000DC0833631F0833771F0833509F057C0F6
:1050300021C0F801808189830E5F1F4F442443946F
:10504000512C540114C03801F2E06F0E711CF801AC
:10505000A080B18026FF03C0652D70E002C06FEF15
:105060007FEFC5012C874CD12C0183012C852F7734
:10507000222E16C03801F2E06F0E711CF801A080DC
:10508000B18026FF03C0652D70E002C06FEF7FEF97
:10509000C5012C872AD12C012C852068222E830162
:1050A00023FC19C0832D90E048165906A0F4B701DF
:1050B00080E290E030D13A94F5CFF50127FC85915C
:1050C00027FE81915F01B70190E025D131103A941C
:1050D000F1E04F1A51084114510479F7DEC08436CB
:1050E00011F0893631F5F80127FF07C06081718121
:1050F000828193810C5F1F4F08C060817181072EF0
:10510000000C880B990B0E5F1F4F2F76722E97FFA6
:1051100009C090958095709561957F4F8F4F9F4FF7
:105120002068722E2AE030E0A4012DD1A82EA81804
:1051300043C0853729F42F7EB22E2AE030E025C007
:10514000F22FF97FBF2E8F36C1F018F4883579F031
:10515000ADC0803719F0883721F0A8C02F2F20610B
:10516000B22EB4FE0DC08B2D8460B82E09C024FF72
:105170000AC09F2F9660B92E06C028E030E005C017
:1051800020E130E002C020E132E0F801B7FE07C0C4
:1051900060817181828193810C5F1F4F06C06081A5
:1051A000718180E090E00E5F1F4FA401ECD0A82E2B
:1051B000A818FB2DFF777F2E76FE0BC0372D3E7F84
:1051C000A51450F474FE0AC072FC08C0372D3E7E50
:1051D00005C0BA2C372D03C0BA2C01C0B52C34FF42
:1051E0000DC0FE01EA0DF11D8081803311F4397E7E
:1051F00009C032FF06C0B394B39404C0832F8678ED
:1052000009F0B39433FD12C030FF06C05A2CB3141A
:1052100018F4530C5B18B32CB31460F4B70180E29C
:1052200090E03C8778D0B3943C85F6CFB31410F46B
:105230003B1801C0312C34FF11C0B70180E390E06E
:105240003C8769D03C8532FF16C031FD03C088E73A
:1052500090E002C088E590E0B7010CC0832F86780B
:1052600051F031FF02C08BE201C080E237FD8DE2D8
:10527000B70190E050D0A51430F4B70180E390E07E
:105280004AD05A94F8CFAA94F401EA0DF11D808116
:10529000B70190E040D0A110F6CF332009F45DCEE5
:1052A000B70180E290E037D03A94F7CFF7018681DA
:1052B000978102C08FEF9FEF2C960FB6F894DEBF58
:1052C0000FBECDBFDF91CF911F910F91FF90EF9057
:1052D000DF90CF90BF90AF909F908F907F906F9016
:1052E0005F904F903F902F900895FC010590615082
:1052F00070400110D8F7809590958E0F9F1F0895EC
:10530000FC016150704001900110D8F78095909594
:105310008E0F9F1F08950F931F93CF93DF93FB0171
:10532000238121FD03C08FEF9FEF28C022FF16C00D
:1053300046815781248135814217530744F4A08167
:10534000B1819D012F5F3F4F318320838C93268154
:1053500037812F5F3F4F3783268310C0EB01092F22
:10536000182F0084F185E02D1995892BE1F68E81A7
:105370009F8101969F838E83812F902FDF91CF9104
:105380001F910F910895FA01AA27283051F1203179
:1053900081F1E8946F936E7F6E5F7F4F8F4F9F4FC9
:1053A000AF4FB1E03ED0B4E03CD0670F781F891F0B
:1053B0009A1FA11D680F791F8A1F911DA11D6A0FD9
:1053C000711D811D911DA11D20D009F468943F918C
:1053D0002AE0269F11243019305D3193DEF6CF018B
:1053E0000895462F4770405D4193B3E00FD0C9F751
:1053F000F6CF462F4F70405D4A3318F0495D31FDBE
:105400004052419302D0A9F7EACFB4E0A695979510
:10541000879577956795BA95C9F7009761057105E6
:1054200008959B01AC010A2E069457954795379530
:105430002795BA95C9F7620F731F841F951FA01D8A
:10544000089511E0C8E0D1E000E005C0802FFE0122
:10545000D6DA2196011DC930D10780E00807B1F7DF
:04546000F894FFCFEE
:1054640090A2DA0D1F4800C00100000000002A08C5
:10547400800000044D51545404000000003B01001E
:10548400000000D71BD71BEA0ED71BD71BD71BD78F
:105494001BD71BF812D71BD71BD71BD71BD71BD760
:1054A4001BD71BD71BD71B00000000C3128913EAAC
:1054B4000EA015D9121A177716451496173114F938
:1054C40014BF13BB143213FC16F112E112DD1225C2
:1054D400642E25642E25642E2564000001005E00E0
:1054E400000000000000B11AD80D4A1AF71A7B1AFE
:1054F400591A6D1A00000000A1152F1EEA0E7F1B19
:10550400861B831B801B00000000D71BD80DEA0EEE
:10551400E90ED71BD71BD71B00000000D71BD80DE3
:10552400EA0EE90E00000000C40EF10EEA0E0D139F
:105534000E13191370145B0F3C1216135F153C15F0
:105544000513E60EE40EFA12DA0E000000008D1BBD
:1055540000000000D71B580357495A6E6574002297
:10556400225C5C6208660C6E0A720D74090061723A
:105574006475696E6F436C69656E74003C44656361
:105584006F64654A736F6E3E2070617273654F621B
:105594006A6563742829206661696C6564006E75A8
:1055A4006C6C006F6B00564D4450565F317C315F1C
:1055B400564D4450560D0A003139322E3136382EAC
:1055C400312E3530003C53455455503E203A20424C
:1055D4006F617264204950203D20003C534554556E
:1055E400503E203A20436F6E6E6563746564207488
:1055F4006F2062726F6B6572003C53455455503E88
:10560400203A20496E697469616C20436F6E6E653F
:105614006374696F6E204661696C6564003C534530
:105624005455503E203A20456E6420436F6E66699F
:10563400672E2E00564D4450455F003A323A007CA6
:10564400005F564D445045003C436865636B436FAF
:105654006E6E656374696F6E3E203A205265737492
:105664006172742045746865726E6574205368694C
:10567400656C642E2E003C436865636B436F6E6EED
:10568400656374696F6E3E203A20526573657420B9
:105694004465766963652E2E003C436865636B43FD
:1056A4006F6E6E656374696F6E3E203A2044697351
:1056B400636F6E6E65637465642E2E20636F6E6E09
:1056C400656374696F6E20617474656D70742023F2
:1056D4003A20003C436865636B436F6E6E65637488
:1056E400696F6E3E203A205265737461727420456E
:1056F400746865726E65742121003C436865636B50
:10570400436F6E6E656374696F6E3E203A20526516
:10571400636F6E6E65637465642121003C43686544
:10572400636B436F6E6E656374696F6E3E203A20DF
:10573400436F6E6E656374656421210061777369DC
:105744006F745F746F5F6C6F63616C6761746577AE
:105754006179006C6F63616C676174657761795F0F
:0A576400746F5F617773696F740062
:00000001FF
