:100000000C94E5000C940D010C940D010C940D0161
:100010000C940D010C940D010C940D010C940D0128
:100020000C940D010C940D010C940D010C940D0118
:100030000C940D010C940D010C940D010C940D0108
:100040000C94F7080C940D010C94F9010C94D30155
:100050000C940D010C940D010C940D010C940D01E8
:100060000C9441090C940D015F0F5C0F590F560F52
:10007000530F500F650F4D0F00407A10F35A00A038
:10008000724E18090010A5D4E80000E87648170061
:1000900000E40B54020000CA9A3B000000E1F505A1
:1000A000000080969800000040420F000000A086EB
:1000B00001000000102700000000E803000000001D
:1000C0006400000000000A000000000001000000C1
:1000D00000002C76D888DC674F0823DFC1DFAE59DB
:1000E000E1B1B796E5E3E453C63AE651997696E86E
:1000F000E6C28426EB898C9B62ED407C6FFCEFBCF2
:100100009C9F40F2BAA56FA5F490055A2AF75C931C
:100110006B6CF9676DC11BFCE0E40D47FEF520E652
:10012000B500D0ED902E0300943577050080841E35
:10013000080000204E0A000000C80C333333330F90
:10014000986E12831141EF8D2114893BE65516CF2D
:10015000FEE6DB18D1844B381BF77C1D901DA4BB39
:10016000E424203284725E228100C9F124ECA1E5EE
:100170003D270001020304050000000025002800BF
:100180002B0000000000240027002A0004040404BF
:100190000404040402020202020203030303030331
:1001A000010204081020408001020408102001020E
:1001B00004081020000000080002010000030407EA
:1001C0000000000000000000181111241FBECFEF36
:1001D000D8E0DEBFCDBF25E0ACEBB3E001C01D929F
:1001E000AD3FB207E1F713E0A0E0B1E0E8E9F6E3E4
:1001F00002C005900D92AC3BB107D9F710E0C5EEF7
:10020000D0E004C02197FE010E941519C43ED10719
:10021000C9F70E94A60D0C944A1B0C940000CF92C3
:10022000DF92EF92FF920F931F93CF93DF936C01B6
:100230007A018B01C0E0D0E0CE15DF0589F0D8014E
:100240006D918D01D601ED91FC910190F081E02D31
:10025000C6010995892B11F47E0102C02196ECCFCD
:10026000C701DF91CF911F910F91FF90EF90DF9029
:10027000CF900895FC01538D448D252F30E0842FBD
:1002800090E0821B930B541710F0CF9608950197BE
:10029000089587E994E00E943B0721E0892B09F447
:1002A00020E0822F0895EF92FF920F931F93CF9338
:1002B000DF93EC0181E0888F9B8D8C8D981305C0B6
:1002C000E889F989808185FD24C0F62E0B8D10E028
:1002D0000F5F1F4F0F731127E02E8C8DE8120CC09B
:1002E0000FB607FCFACFE889F989808185FFF5CF41
:1002F000CE010E943908F1CF8B8DFE01E80FF11D70
:10030000E35AFF4FF0820B8FEA89FB89808180627C
:1003100007C0EE89FF896083E889F989808180645C
:10032000808381E090E0DF91CF911F910F91FF904A
:10033000EF900895CF93DF93EC01888D8823C9F067
:10034000EA89FB89808185FD05C0A889B9898C91DE
:1003500086FD0FC00FB607FCF5CF808185FFF2CF79
:10036000A889B9898C9185FFEDCFCE010E9439080B
:10037000E7CFDF91CF9108956115710579F0FB0109
:1003800001900020E9F73197AF01461B570BDC01C4
:10039000ED91FC910280F381E02D099480E090E0E2
:1003A00008950C94BC011F920F920FB60F92112466
:1003B0002F933F934F935F936F937F938F939F936D
:1003C000AF93BF93EF93FF9387E994E00E943908BE
:1003D000FF91EF91BF91AF919F918F917F916F911D
:1003E0005F914F913F912F910F900FBE0F901F90F3
:1003F00018951F920F920FB60F9211242F938F937F
:100400009F93EF93FF93E091A704F091A80480815C
:10041000E091AD04F091AE0482FD12C09081809114
:10042000B0048F5F8F732091B104821751F0E09177
:10043000B004F0E0E956FB4F958F8093B00401C003
:100440008081FF91EF919F918F912F910F900FBE1F
:100450000F901F901895E7E9F4E0A089B18982E038
:100460008C93A485B5851C92A685B78580E18C9375
:10047000108EA489B58986E08C93A289B3898C916A
:1004800080618C93A289B3898C9188608C93A289B6
:10049000B3898C9180688C930288F389E02D8081E8
:1004A0008F7D80830895E0919704F09198040190E6
:1004B000F081E02D682F87E994E00994209196045B
:1004C0009091A005213208F04AC0809173048111F7
:1004D000FCCF32E03093730431E0309372043FEF8D
:1004E000309371041092700420936F04A6E7B4E077
:1004F0004FE454E0FA013E2F341B321718F43D91BB
:100500003193F9CF10924E0420914E04990F922B03
:1005100090934E0490914D04913061F410924D04EB
:1005200090914E049093BB009091BC0093FDF8CF46
:1005300095EC01C095EE9093BC00909173049230BD
:10054000E1F3909171049F3F79F0809171048032C2
:1005500041F080917104803331F084E005C081E086
:1005600003C082E001C083E01092750410929604EB
:1005700010927404089591E0909374048093A00500
:10058000109275041092960408959091730491113D
:10059000FCCF613208F060E291E090937304909395
:1005A00072042FEF2093710410927004260F209391
:1005B0006F0490934E0490914E04880F892B809382
:1005C0004E0480914D04813061F410924D0480916D
:1005D0004E048093BB008091BC0083FDF8CF85EC76
:1005E00001C085EE8093BC00809173048130E1F3FB
:1005F00080917004861710F460917004AFE4B4E049
:100600002DE234E0F9018E2F821B861718F48D91AC
:100610008193F9CF10922C0460932B04862F0895B8
:10062000EF92FF920F931F93CF93DF931F92CDB75B
:10063000DEB7682F8091290469830E94BB0269811B
:100640008CE795E00E9404080E945E0280912904D4
:100650000E94BB0262E070E08091290490912A041C
:100660000E94C50290912B0480912C049817F1F3FD
:100670008CE795E00E94B807082F8CE795E00E9470
:10068000B807182F0E945E02F02EE12CC701812BC3
:100690000F90DF91CF911F910F91FF90EF900895F0
:1006A0001F93CF93DF931F92CDB7DEB7682F809152
:1006B000290469830E94BB0269818CE795E00E944E
:1006C00004080E945E02809129040E94BB0261E03E
:1006D00070E08091290490912A040E94C5029091B3
:1006E0002B0480912C049817F1F38CE795E00E947D
:1006F000B807182F0E945E02812F0F90DF91CF91D3
:100700001F910895CF93DF939CB59F7D9CBD9CB5B1
:10071000937F9CBD9CB59C7F9CBD9DB591609DBD0C
:10072000C8E8D5E0682F8A810E945A088C899D8983
:10073000DF91CF910C94A60880E00C9482031F9364
:10074000CF93DF9300D0CDB7DEB76A8389830E9451
:100750009C0389818F7180620E946F0A182F6A81C1
:10076000862F0E946F0A81E00E948203812F0F90E2
:100770000F90DF91CF911F9108951F93CF93DF9337
:100780001F92CDB7DEB789830E949C0389818F7148
:100790000E946F0A8FEF0E946F0A182F81E00E945B
:1007A0008203812F0F90DF91CF911F910895CF93F6
:1007B0000E949C0381EE0E946F0AC82F81E00E9474
:1007C00082038C2FCF91089520918805309189055F
:1007D00040918A0550918B052417350721F0682F29
:1007E000822F0C945A08089590E0FC01E056FE4FC9
:1007F0002491FC01E457FE4F8491882399F090E006
:10080000880F991FFC01EE57FE4FA591B491FC0192
:10081000E858FE4F859194918FB7F894EC91E22BB4
:10082000EC938FBF0895CF93DF93D82FC62F80917D
:1008300029040E94BB026D2F8CE795E00E940408FA
:100840006C2F8CE795E00E940408DF91CF910C9407
:100850005E02DF92EF92FF920F931F93CF93DF938D
:100860001F92CDB7DEB7F82E20918F05D22E2937F3
:1008700010F088E7D82E80919005811103C0E22EF8
:10088000ED1801C0E12C99830E949C0380EA0E942C
:100890006F0A0F2D9981192FDA94FFEFDF1631F0CF
:1008A000F80181918F010E946F0AF6CFEE2029F0A6
:1008B00080E00E946F0AEA94F9CF81E00E948203EF
:1008C00081E00E94E4030E949C038FEF0E946F0A64
:1008D000182F81E00E9482031073A9F380E00E9428
:1008E000E40360E787E00E949F0384FF04C00E9446
:1008F000D70380E001C081E00F90DF91CF911F917D
:100900000F91FF90EF90DF9008956F927F928F92FA
:100910009F92AF92BF92CF92DF92EF92FF920F938E
:100920001F93CF93DF938C01809129040E94BB0217
:100930006BE38CE795E00E9404080E945E028091C0
:1009400029040E94BB0266E070E080912904909126
:100950002A040E94C50280912B0490E020912C046F
:10096000821B910986309105ECF38CE795E00E949B
:10097000B807682E8CE795E00E94B807782E8CE7C0
:1009800095E00E94B807882E8CE795E00E94B80792
:10099000982E8CE795E00E94B807A82E8CE795E08A
:1009A0000E94B807B82ED62CC12CB6016729072E95
:1009B000000C880B990B0E9487166093BD037093FF
:1009C000BE038093BF039093C003F82CE12CB701C2
:1009D0006929072E000C880B990B0E9487166093DB
:1009E000C1037093C2038093C3039093C403DA2DB1
:1009F00080E0C82FBE016B29072E000C880B990BD5
:100A00000E9487166093C5037093C6038093C70343
:100A10009093C8038CE0EDEBF3E0D80101900D92C8
:100A20008A95E1F7C801DF91CF911F910F91FF9057
:100A3000EF90DF90CF90BF90AF909F908F907F907E
:100A40006F900895CF92DF92EF92FF920F931F93D2
:100A5000CF93DF93CDB7DEB7A1970FB6F894DEBF83
:100A60000FBECDBF7C01CB01BA01D70111961C92FC
:100A70001E9213961C921E92129715961C921E920D
:100A8000149742E0420F8E010F5F1F4F0E947C11AE
:100A90006C01F70180819181C114D10469F1F601E3
:100AA00001900020E9F731978F010C191D0900977B
:100AB00041F0D70112962D913C91139720173107E1
:100AC00060F5B8016F5F7F4F0E94481AFC010097E4
:100AD00081F0D70111969C938E9313961C930E93DD
:100AE000129714968D919C911597892BB1F41082D1
:100AF00014C0F70180819181009711F00E94B01914
:100B0000D70111961C921E9215961C921E92149754
:100B100013961C921E92129708C0F7011583048346
:100B2000B601808191810E94201BA1960FB6F89496
:100B3000DEBF0FBECDBFDF91CF911F910F91FF9010
:100B4000EF90DF90CF9008954F925F926F927F92D7
:100B5000EF92FF920F931F93CF93DF93CDB7DEB742
:100B6000A1970FB6F894DEBF0FBECDBF7C01FA018E
:100B7000CB0119A2223008F42AE08E010F5D1F4F2D
:100B8000422E512C612C712CBF01A30192010E94B5
:100B9000A417F901CA01015011096A3014F4605D0B
:100BA00001C0695CD8016C93232B242B252B61F7A2
:100BB000B801C7010E94BC01A1960FB6F894DEBF30
:100BC0000FBECDBFDF91CF911F910F91FF90EF909E
:100BD0007F906F905F904F9008950F931F93CF93E6
:100BE000DF9300D000D0CDB7DEB7AC01990F660B14
:100BF000770B77FF23C08DE249835A836B837C8315
:100C00000E9453028C0149815A816B817C817095CD
:100C10006095509541955F4F6F4F7F4F2AE087E970
:100C200094E00E94A405800F911F0F900F900F90E9
:100C30000F90DF91CF911F910F9108952AE087E9DE
:100C400094E00F900F900F900F90DF91CF911F9134
:100C50000F910C94A4054F925F926F927F928F92A6
:100C60009F92AF92BF92CF92DF92EF92FF926B0171
:100C70007C01B42E9B01AC010E941019882319F04D
:100C800063E373E027C026013701E89477F82FEF7C
:100C90003FEF4FE75FE7C301B2010E9410198111D6
:100CA0000DC02FEF3FEF4FE75FE7C301B2010E9496
:100CB000801618161CF467E373E00CC02FEF3FEFAB
:100CC0004FE75FE4C701B6010E940B19181694F4B0
:100CD0006BE373E087E994E0FF90EF90DF90CF90B3
:100CE000BF90AF909F908F907F906F905F904F904C
:100CF0000C94BC012FEF3FEF4FE75FECC701B6014B
:100D00000E94801687FDE4CF20E030E0A901C701F2
:100D1000B6010E94801687FF09C08DE20E9453022F
:100D20004C01F7FAF094F7F8F09402C0812C912C62
:100D3000A12C60E070E080E09FE3AB1441F020E084
:100D400030E040E251E40E946A18A394F6CF9B0180
:100D5000AC01C701B6010E94FE172B013C010E94A5
:100D6000DC186B017C010E9485169B01AC01C3015C
:100D7000B2010E94FD172B013C012AE0B701A60138
:100D800087E994E00E94A4057C01E80CF91CBB20D3
:100D900029F08EE20E945302E80EF91EDB2CDD20C2
:100DA00031F120E030E040E251E4C301B2010E94A1
:100DB000E6162B013C010E94DC184B01A12CB12C42
:100DC0002AE0B501A40187E994E00E94A405E80E99
:100DD000F91EC501B4010E9485169B01AC01C30137
:100DE000B2010E94FD172B013C01DA94D8CFC70154
:100DF000FF90EF90DF90CF90BF90AF909F908F903B
:100E00007F906F905F904F9008950F931F93CF93B3
:100E1000DF93EC010E94BC018C0160E571E0CE0122
:100E20000E94BC01800F911FDF91CF911F910F9104
:100E30000895FC01918D828D981761F0828DDF01FC
:100E4000A80FB11D5D968C91928D9F5F9F73928FBD
:100E500090E008958FEF9FEF0895FC01918D828DB2
:100E6000981731F0828DE80FF11D858D90E008957F
:100E70008FEF9FEF0895FC01918D228D892F90E0D7
:100E8000805C9F4F821B91098F739927089580E0A2
:100E900090E0892B29F00E94490181110C940000F7
:100EA00008953FB7F8948091F5059091F605A091CB
:100EB000F705B091F80526B5A89B05C02F3F19F09E
:100EC0000196A11DB11D3FBFBA2FA92F982F8827CA
:100ED000820F911DA11DB11DBC01CD0142E0660F25
:100EE000771F881F991F4A95D1F7089585ED809344
:100EF000BC008091BC0084FDFCCF10927304089567
:100F00004091CB05262F30E0240F311D21323105D1
:100F1000DCF4209173042430C9F4FC0180E090E0FB
:100F2000861758F43091CB052191DC01A755BA4FB3
:100F3000A30FB11D2C930196F3CF8091CB05680FC1
:100F40006093CB0580E0089581E0089582E00895E4
:100F50000895E0912C0480912B04E81730F4F0E020
:100F6000E35DFB4F808190E008958FEF9FEF089540
:100F700090912C0480912B04981750F4E92FF0E005
:100F8000E35DFB4F208130E09F5F90932C0402C013
:100F90002FEF3FEFC901089580912B0490E020913D
:100FA0002C04821B91090895CF92DF92EF92FF9259
:100FB0000F931F93CF93DF937C01262F972F8A01E6
:100FC00080917404882391F0C62FD72F6E01C40E30
:100FD000D51ECC15DD0571F06991D701ED91FC911D
:100FE0000190F081E02DC7010995F3CF642F822F86
:100FF0000E948007C801DF91CF911F910F91FF9050
:10100000EF90DF90CF900895CF93DF931F92CDB7ED
:10101000DEB76983209174042223D1F020919604D5
:10102000203240F021E030E0FC013383228380E075
:1010300090E015C080917504E82FF0E0EA58FB4F6E
:10104000998190838F5F809375048093960405C087
:1010500061E0CE0101960E94800781E090E00F9050
:10106000DF91CF910895089580E090E008950E9467
:10107000121BFC01848DDF01A80FB11DA35ABF4FC5
:101080002C91848D90E001968F739927848FA68987
:10109000B7892C93A089B1898C9180648C93938DAE
:1010A000848D981306C00288F389E02D80818F7D9E
:1010B0008083089590E0FC01EC54FE4F3491FC01D4
:1010C000E056FE4F2491FC01E457FE4FE491EE23DD
:1010D00009F43BC0332339F1333091F038F4313027
:1010E000A9F0323001F584B58F7D12C0373091F010
:1010F0003830A1F03430B9F4809180008F7D03C086
:10110000809180008F77809380000DC084B58F77A9
:1011100084BD09C08091B0008F7703C08091B0007A
:101120008F7D8093B000F0E0EE0FFF1FE858FE4F78
:10113000A591B4918FB7F894EC91611103C02095FB
:101140002E2301C02E2B2C938FBF08958230910542
:1011500038F0880F991F880F991F05970197F1F7AD
:1011600008958F929F92AF92BF92CF92DF92EF92AB
:10117000FF926B017C010E9451074B015C01C1147D
:10118000D104E104F104F1F00E945107DC01CB012C
:1011900088199909AA09BB09883E9340A105B105A0
:1011A00070F321E0C21AD108E108F10888EE880E38
:1011B00083E0981EA11CB11CC114D104E104F10408
:1011C00019F7DDCFFF90EF90DF90CF90BF90AF90F9
:1011D0009F908F9008952FB7F8946091F1057091CA
:1011E000F2058091F3059091F4052FBF08951F92A9
:1011F0000F920FB60F9211242F933F938F939F93CB
:10120000AF93BF938091F1059091F205A091F30502
:10121000B091F4053091F00523E0230F2D3720F431
:101220000196A11DB11D05C026E8230F0296A11D40
:10123000B11D2093F0058093F1059093F205A093E2
:10124000F305B093F4058091F5059091F605A09112
:10125000F705B091F8050196A11DB11D8093F50524
:101260009093F605A093F705B093F805BF91AF9161
:101270009F918F913F912F910F900FBE0F901F90D4
:1012800018951F920F920FB60F9211242F933F9330
:101290004F935F936F937F938F939F93AF93BF937E
:1012A000EF93FF938091B900887F803609F49CC04A
:1012B00068F5883209F45BC090F4803109F454C0B9
:1012C00038F4882309F4F6C0883009F44DC0F6C01C
:1012D000883109F44CC0803209F45DC0EFC080341D
:1012E00009F468C048F4803309F455C0883309F024
:1012F000E5C080937104D8C0803509F44FC08835AB
:1013000009F45DC0883409F0D9C0D6C0883909F421
:10131000C7C0A8F4883709F467C038F4883609F4E0
:1013200063C0803709F460C0C9C0883809F4B8C008
:10133000803909F45FC0803809F0C0C05BC0803BD1
:1013400009F486C038F4803A09F466C0883A09F492
:101350007FC0B4C0803C09F4A7C0883C09F4A4C095
:10136000883B09F48AC0AAC080914E0410C09091B5
:10137000700480916F04981770F5E091700481E01B
:101380008E0F80937004F0E0E15BFB4F80818093CF
:10139000BB0085EC86C0809371048EC0E091700420
:1013A00081E08E0F809370048091BB00F0E0E15BE0
:1013B000FB4F80839091700480916F046EC0E09128
:1013C000700481E08E0F809370048091BB00F0E088
:1013D000E15BFB4F80838091720481116DC081E0DD
:1013E00080934D0484EA61C083E08093730410927B
:1013F000EF05CFCF8091EF05803208F051C0E0912A
:10140000EF0581E08E0F8093EF058091BB00F0E047
:10141000E153FA4F8083BDCF85EC8093BC001092DE
:1014200073048091EF05803230F4E091EF05F0E035
:10143000E153FA4F10826091EF0570E0E091CD0525
:10144000F091CE058FEC95E009951092EF0536C02E
:1014500084E0809373041092CC051092CB05E09148
:10146000C905F091CA0509958091CB05811105C088
:1014700081E08093CB051092A905E091CC0581E035
:101480008E0F8093CC05F0E0E755FA4F8081809372
:10149000BB009091CC058091CB05981708F479CFCB
:1014A00085E88093BC000AC085EC8093BC00109254
:1014B000730404C0109271040E947607FF91EF91AB
:1014C000BF91AF919F918F917F916F915F914F915C
:1014D0003F912F910F900FBE0F901F9018958EBDCA
:1014E00000000DB407FEFDCF8EB508952F923F92F8
:1014F0004F925F926F927F928F929F92AF92BF9224
:10150000CF92DF92EF92FF920F931F93CF93DF93CF
:10151000CDB7DEB7CD5AD1400FB6F894DEBF0FBEBF
:10152000CDBF0E94EB08672B682B692B41F40E940A
:10153000EB08623071058105910508F415C10E9420
:10154000EB086093A5057093A6058093A70590937B
:10155000A8050091A1051091A2052091A305309145
:10156000A405601771078207930740F46093A105F3
:101570007093A2058093A3059093A4050091A10503
:101580001091A2052091A3053091A4056B017C0167
:10159000C01AD10AE20AF30A970186010A3F11052F
:1015A0002105310508F4E0C06093A1057093A20500
:1015B0008093A3059093A40584EF91E0A0E0B0E0B0
:1015C0008093420590934305A0934405B09345054D
:1015D0001092460510924705109248051092490551
:1015E00080913A0590913B05A0913C05B0913D0555
:1015F00080933E0590933F05A0934005B09341052D
:101600000E94EB0860933A0570933B0580933C057C
:1016100090933D050E94EB08609336057093370563
:1016200080933805909339050E94EB086B017C018B
:101630006FE373E080917605909177050E94D10168
:101640002AE041E050E060E070E080917605909102
:1016500077050E94A40566E473E080917605909179
:1016600077050E94D1012AE0B701A6018091760595
:10167000909177050E94A40568E473E08091760557
:10168000909177050E94D10180913A0590913B0598
:10169000A0913C05B0913D05B701A601481B590B2F
:1016A0006A0B7B0B2AE080917605909177050E946A
:1016B000A40568E473E080917605909177050E9417
:1016C000D10140913A0550913B0560913C057091E4
:1016D0003D0580913E0590913F05A0914005B09158
:1016E0004105481B590B6A0B7B0B2AE0809176055C
:1016F000909177050E94A4056AE473E080917605D5
:10170000909177050E94D1010E94EB08AB01BC01CA
:101710002AE080917605909177050E94A4056CE4FB
:1017200073E080917605909177050E9405070E94ED
:10173000EB086B017C014B015C0185E0880E911C7C
:10174000A11CB11C0E94EB086C157D058E059F0540
:1017500008F0F5C10E94EB0860933A0570933B05D1
:1017600080933C0590933D05CE0187599E4F0E9482
:1017700085048E010F5F1F4FC8010E948504C09031
:101780002004D0902104E0902204F09023042091C2
:10179000BD033091BE034091BF035091C003C70108
:1017A000B6010E94E6162AE038EE4CE151E40E94B0
:1017B000E6162B013C016093D5037093D60380930A
:1017C000D7039093D8032091C1033091C203409175
:1017D000C3035091C403C701B6010E94E6162AE074
:1017E00038EE4CE151E40E94E6164B015C01609337
:1017F000D9037093DA038093DB039093DC03209189
:10180000C5033091C6034091C7035091C803C70177
:10181000B6010E94E6162AE038EE4CE151E40E943F
:10182000E6166B017C016093DD037093DE03809309
:10183000DF039093E00363E573E087E994E00E949F
:10184000D101C759DE4F688179818A819B81C95650
:10185000D14042E00E942B066CE573E087E994E0FA
:101860000E94D101C359DE4F688179818A819B81B1
:10187000CD56D14042E00E942B0665E673E087E931
:1018800094E00E94D101CF58DE4F688179818A812E
:101890009B81C157D14042E00E942B0660E571E078
:1018A00087E994E00E94BC016EE673E087E994E06A
:1018B0000E94D10142E0C301B2010E942B0668E7F9
:1018C00073E087E994E00E94D10142E0C501B401D0
:1018D0000E942B0662E873E087E994E00E94D10140
:1018E00042E0C701B6010E942B0660E571E087E97E
:1018F00094E00E94BC01CE0180589E4FC855DE4F37
:1019000099838883C85AD1408AE0EEE9F3E0DE018A
:10191000A058BE4F01900D928A95E1F71E019BE8F9
:10192000291A9EEF390A8BE0E8EAF3E0D101019031
:101930000D928A95E1F7CE0186579E4FC655DE4F30
:1019400099838883CA5AD14088E0E3EBF3E0DE0153
:10195000A657BE4F01900D928A95E1F7CE018C55A6
:101960009E4FC455DE4F99838883CC5AD14081E382
:1019700090E3A0E3B0E0CC55DE4F88839983AA833F
:10198000BB83C45AD14024E0B301A201CE018256E8
:101990009E4F0E94220524E0B501A401CE01885685
:1019A0009E4F0E94220524E0B701A601CE018E566B
:1019B0009E4F0E942205CD56DE4F8881C359D140EB
:1019C0008F93CE56DE4F8881C259D1408F93C75630
:1019D000DE4F8881C959D1408F93C856DE4F888128
:1019E000C859D1408F93C156DE4F8881CF59D1401D
:1019F0008F93C256DE4F8881CE59D1408F938CE8A9
:101A000093E09F938F931F930F930E94271BC755BB
:101A1000DE4F9881C95AD1409F93C855DE4FC88088
:101A2000C85AD140CF92C555DE4FD880CB5AD1404D
:101A3000DF92C655DE4FE880CA5AD140EF9288E95E
:101A400093E09F938F936E0181EFC80ED11CDF92BC
:101A5000CF920E94271BC355DE4F9881CD5AD140AB
:101A60009F93C455DE4FE880CC5AD140EF923F920D
:101A70002F9287E993E09F938F937E0189E7E80E89
:101A8000F11CFF92EF920E94271BC6010E942904BD
:101A9000C7010E942904C8010E94290461E084E072
:101AA0000E945A0864E670E080E090E00E94B1086D
:101AB00060E084E00E945A0864E670E080E090E014
:101AC0000E94B10868EE73E080E090E00E94B108E7
:101AD000CE56DE4F88819981C259D1400E94B019FB
:101AE000C856DE4F88819981C859D1400E94B019EB
:101AF000C256DE4F88819981CE59D1400E94B019DB
:101B00000FB6F894DEBF0FBECDBFC355DE4F0FB684
:101B1000F894DEBF0FBECDBFDF91CF911F910F9123
:101B2000FF90EF90DF90CF90BF90AF909F908F90FD
:101B30007F906F905F904F903F902F900895861602
:101B40009706A806B90608F0FDCD04CECF93DF9323
:101B500000D000D0CDB7DEB7789484B5826084BD64
:101B600084B5816084BD85B5826085BD85B58160A1
:101B700085BD80916E00816080936E00109281001F
:101B800080918100826080938100809181008160DA
:101B9000809381008091800081608093800080919B
:101BA000B10084608093B1008091B0008160809327
:101BB000B00080917A00846080937A0080917A00EE
:101BC000826080937A0080917A00816080937A00AD
:101BD00080917A00806880937A001092C100109200
:101BE00078051092790510927A0510927B05109273
:101BF00036051092370510923805109239050E946B
:101C0000EB086B017C014B015C0188EB880E8BE0DB
:101C1000981EA11CB11C0E94EB086C157D058E0559
:101C20009F0528F086169706A806B906A0F787E94B
:101C300094E090937705809376050E942B020E9492
:101C4000EB086093360570933705809338059093C1
:101C5000390561E471E080917605909177050E94E5
:101C6000D1010E94EB086B017C014B015C01EAE0B1
:101C70008E0E911CA11CB11C0E94EB086C157D05F9
:101C80008E059F0528F086169706A806B906A0F7C8
:101C900081E080934A050E942B0263E571E087E9A9
:101CA00094E00E94050748E6E42EF12C01E018E4D8
:101CB00055E4C52EF0922A04E092290410922C04D7
:101CC00010922B04109275041092960410927304D3
:101CD0000093720410924D0461E082E10E945A0860
:101CE00061E083E10E945A088091B9008E7F809361
:101CF000B9008091B9008D7F8093B9001093B8002E
:101D0000C092BC001092F9031092FA031092FB03E8
:101D10001092FC031092FD031092FE031092FF0339
:101D20001092000410920104109202041092030415
:101D300010920404109228041092ED031092EE0306
:101D40001092EF031092F0031092F1031092F2033D
:101D50001092F3031092F4031092F5031092F6031D
:101D60001092F7031092F8031092240410922504A5
:101D70001092260410922704809129040E94BB022D
:101D800065E78CE795E00E9404080E945E0280915E
:101D900029040E94BB0261E070E0809129049091C7
:101DA0002A040E94C5028CE795E00E94B807D82E4D
:101DB0000E945E02F8E6DF1669F066E671E087E9E8
:101DC00094E00E94050764EF71E080E090E00E94DB
:101DD000B10870CF8BE60E945003887F682F616046
:101DE0008BE60E9413048CEE90ECA9E7BDE3809390
:101DF0001C0490931D04A0931E04B0931F048BE158
:101E00000E945003682F68618BE10E94130480E4F4
:101E10009AEDAFE7B8E38093200490932104A09358
:101E20002204B09323048CE10E945003682F677E44
:101E30008CE10E9413048BE60E945003682F6F7B95
:101E40008BE60E94130460E571E087E994E00E944C
:101E5000BC016BE971E087E994E00E94D1018BE657
:101E60000E94500386FD03C068E371E002C060E396
:101E700071E087E994E00E94050766EB71E087E96D
:101E800094E00E94D1018BE60E945003877090E09D
:101E9000FC01EC5CFF4F0C94151961ED71E011C071
:101EA00069E072E00EC06DE272E00BC063E572E0C3
:101EB00008C067E772E005C06BE972E002C06FEB33
:101EC00072E087E994E00E94050768ED72E087E917
:101ED00094E00E94D1018CE10E945003887190E04F
:101EE00033E0959587953A95E1F78230910559F061
:101EF0008330910529F0019749F464E073E008C04C
:101F000063EF72E005C06CEF72E002C06CE073E05A
:101F100087E994E00E94050764E173E087E994E0B3
:101F20000E94D10186E00E9410030E94ED056FE23D
:101F300073E087E994E00E94D10188E00E941003D9
:101F40000E94ED056FE273E087E994E00E94D10101
:101F50008AE00E941003AC01990F660B770B77FFA4
:101F600012C08DE249835A836B837C830E945302A3
:101F700049815A816B817C8170956095509541951E
:101F80005F4F6F4F7F4F2AE087E994E00E94A405DE
:101F900060E571E087E994E00E94BC0160E571E0D2
:101FA00087E994E00E94BC018091880590918905A1
:101FB00020918A0530918B058217930711F00E94BA
:101FC000F40380918A0590918B05209188053091CA
:101FD00089052817390711F00E94F4031FB7F894F8
:101FE0008091BC03811124C0E6E9F1E08491EAEA22
:101FF000F1E09491E82FF0E0EE0FFF1FEE57FE4F57
:10200000A591B491EC91E92321F461E08AE00E946A
:102010005A088AE00E94F4038CB580618CBD8CB5AF
:1020200080648CBD8DE00E94F4038BE00E94F40379
:102030008091BC038F5F8093BC031FBF80E00E9430
:10204000E40381E00E94820365E070E080E090E0BC
:102050000E94B1086CE080E00E949F036FE584E07D
:102060000E949F0386E00E94BD03877D182F1062A7
:102070008BE990E0A0E0B0E08093980590939905FB
:10208000A0939A05B0939B05612F86E00E949F0361
:1020900086E00E94BD03811709F4C6C086E00E9455
:1020A000BD0386E00E94BD0345E550E060E070E0BE
:1020B000409398055093990560939A0570939B05FA
:1020C000682F677D86E00E949F0386E00E94BD0323
:1020D0000E949C0380E50E946F0A83E70E946F0ABA
:1020E00081E00E94820360E08DE10E949F0360E036
:1020F0008CE10E949F031092900560E787E00E94A8
:102100009F036CE485E00E949F030E949C0382EE83
:102110000E946F0A81E00E9482030E94D70380E040
:102120000E94BD0381FD0BC0682F626080E00E94A9
:102130009F0365E070E080E090E00E94B10880E0DD
:102140000E94BD03682F6E7F80E00E949F03F09085
:1021500096050E949C038AE20E946F0A86E0C82EC0
:1021600081E0D82E8601EC2CFC0CF01631F0F80141
:1021700081918F010E946F0AF8CF81E00E94820353
:10218000109196050E949C0380E30E946F0A1E0D29
:102190001C1531F0F60181916F010E946F0AF8CF92
:1021A00081E00E94820360918F0581E10E949F037C
:1021B00086E00E94BD03887F682F616086E00E94F0
:1021C0009F0380E00E94E403809198059091990517
:1021D0000E94A6088DE10E94BD0381FF08C0809186
:1021E0009805909199050E94A6080E94D70380E067
:1021F0000E94BD03682F6E7F80E00E949F0382E0F3
:102200000E94BD03E2E7F1E0E49161E070E001C00B
:10221000660FEA95EAF7682B82E00E949F030E940E
:10222000760A0E944707FBCF81E080938E0536CF68
:10223000E7E9F4E01382128288EE93E0A0E0B0E0D8
:1022400084839583A683B78320E131E031832083A3
:1022500025EC30E03587248724EC30E0378726876B
:1022600020EC30E0318B208B21EC30E0338B228B63
:1022700022EC30E0358B248B26EC30E0378B268B3C
:10228000118E128E138E148EE4E3F5E016821782FF
:102290001086118612861386148615861686178672
:1022A000108A118A128A138A148A158AECE7F5E0DB
:1022B0001382128284839583A683B78382E291E09E
:1022C00091838083E8E8F5E087E090E09183808364
:1022D00088E090E093838283168280E28783108671
:1022E00085E0868785E090E0A0E0B0E0848B958B68
:1022F000A68BB78B11860895EF920F931F93CF9300
:10230000DF93E80147FD02C034E001C034E1E42F6F
:10231000440FFF0BF7FF03C0F195E195F109E32EA0
:10232000022F2E2FAE010E946E13CE01DF91CF91AE
:102330001F910F91EF900895ACE0B0E0E2EAF1E177
:102340000C94C6177C016B018A01FC01178216826E
:10235000838181FFBDC1CE0101964C01F7019381BC
:10236000F60193FD859193FF81916F01882309F414
:10237000ABC1853239F493FD859193FF81916F0153
:10238000853229F4B70190E00E94EA15E7CF512C7D
:10239000312C20E02032A0F48B3269F030F480320E
:1023A00059F0833269F420612CC08D3239F08033CA
:1023B00039F4216026C02260246023C0286021C037
:1023C00027FD27C030ED380F3A3078F426FF06C0DD
:1023D000FAE05F9E300D1124532E13C08AE0389E20
:1023E000300D1124332E20620CC08E3221F426FDD4
:1023F0006BC1206406C08C3611F4206802C0883698
:1024000041F4F60193FD859193FF81916F01811154
:10241000C1CF982F9F7D9554933028F40C5F1F4FA8
:10242000FFE3F9830DC0833631F0833771F08335D4
:1024300009F05BC022C0F801808189830E5F1F4FC5
:1024400044244394512C540115C03801F2E06F0E1E
:10245000711CF801A080B18026FF03C0652D70E0DB
:1024600002C06FEF7FEFC5012C870E94DF152C01A2
:1024700083012C852F77222E17C03801F2E06F0ED2
:10248000711CF801A080B18026FF03C0652D70E0AB
:1024900002C06FEF7FEFC5012C870E94D4152C017D
:1024A0002C852068222E830123FC1BC0832D90E005
:1024B00048165906B0F4B70180E290E00E94EA1590
:1024C0003A94F4CFF50127FC859127FE81915F01B5
:1024D000B70190E00E94EA1531103A94F1E04F1AEA
:1024E00051084114510471F7E5C0843611F0893662
:1024F00039F5F80127FF07C06081718182819381DE
:102500000C5F1F4F08C060817181072E000C880B83
:10251000990B0E5F1F4F2F76722E97FF09C0909573
:102520008095709561957F4F8F4F9F4F2068722ED9
:102530002AE030E0A4010E942216A82EA81844C068
:10254000853729F42F7EB22E2AE030E025C0F22F05
:10255000F97FBF2E8F36C1F018F4883579F0B4C0FA
:10256000803719F0883721F0AFC02F2F2061B22EAD
:10257000B4FE0DC08B2D8460B82E09C024FF0AC0A4
:102580009F2F9660B92E06C028E030E005C020E1FC
:1025900030E002C020E132E0F801B7FE07C0608100
:1025A0007181828193810C5F1F4F06C060817181B0
:1025B00080E090E00E5F1F4FA4010E942216A82E1B
:1025C000A818FB2DFF777F2E76FE0BC0372D3E7FA0
:1025D000A51450F474FE0AC072FC08C0372D3E7E6C
:1025E00005C0BA2C372D03C0BA2C01C0B52C34FF5E
:1025F0000DC0FE01EA0DF11D8081803311F4397E9A
:1026000009C032FF06C0B394B39404C0832F867808
:1026100009F0B39433FD13C030FF06C05A2CB31435
:1026200018F4530C5B18B32CB31468F4B70180E2B0
:1026300090E03C870E94EA15B3943C85F5CFB31433
:1026400010F43B1801C0312C34FF12C0B70180E3F5
:1026500090E03C870E94EA153C8532FF17C031FDAF
:1026600003C088E790E002C088E590E0B7010CC0A5
:10267000832F867859F031FF02C08BE201C080E2DF
:1026800037FD8DE2B70190E00E94EA15A51438F4F9
:10269000B70180E390E00E94EA155A94F7CFAA941C
:1026A000F401EA0DF11D8081B70190E00E94EA1566
:1026B000A110F5CF332009F451CEB70180E290E0AC
:1026C0000E94EA153A94F6CFF7018681978102C0FD
:1026D0008FEF9FEF2C96E2E10C94E2174F925F92FE
:1026E0006F927F929F92AF92BF92CF92DF92EF92C2
:1026F000FF920F931F93CF93DF93CDB7DEB7299748
:102700000FB6F894DEBF0FBECDBF6A01122FB02EF8
:102710002BE3201720F0FF24F394F00E02C0BCE35B
:10272000FB2E0F2D27E0AE014F5F5F4F0E94FC1480
:10273000AC018981982F9970913031F0E1FC06C08D
:10274000E0FE06C090E205C09DE203C09BE201C02E
:1027500090E0EE2DE07183FF3CC0911102C083E058
:1027600001C084E0811718F4212F281B01C020E04C
:10277000E1110BC0F601822F30E2882319F031936A
:102780008150FBCFC20ED11C20E0992329F0D60145
:102790009C93F60131966F01C6010396E2FE0AC0D2
:1027A0003EE4D6013C9341E411964C931197129666
:1027B0003C9306C03EE6F601308341E64183328316
:1027C000FC01322F40E2332309F442C041933150DF
:1027D000FACF82FF44C0911102C083E001C084E0BF
:1027E000811718F4212F281B01C020E0E1110BC034
:1027F000F601822F30E2882319F031938150FBCF0C
:10280000C20ED11C20E0992329F0D6019C93F60139
:1028100031966F01C6010396E2FE0BC039E4D60182
:102820003C933EE411963C93119736E412963C9308
:1028300007C039E6F60130833EE6318336E632835F
:10284000FC01322F40E2332319F041933150FBCF8A
:10285000FC01E20FF11D10828EEF9FEFB7C0F1E097
:10286000911101C0F0E06F2F70E01416150624F4EA
:102870009A012F5F3F4F02C021E030E0260F371F43
:10288000BB2029F06B2D70E06F5F7F4F02C060E0CE
:1028900070E0260F371F612F70E0261737071CF4F2
:1028A000121B212F01C020E03E2D387159F4D601B2
:1028B000322F60E2332319F06D933150FBCFC20EFB
:1028C000D11C20E0FF2331F0D6019C93B6016F5F4D
:1028D0007F4F6B01E1110BC0F601922F30E399237A
:1028E00019F031939150FBCFC20ED11C20E09F2DE7
:1028F000940F3A81782F7071A72E84FF03C0313373
:1029000009F49150191624F4993018F098E001C098
:1029100091E0E42F852F57FF02C0E0E080E06E2FAA
:10292000782FE0E0F0E0AEE29A2E3A01691A7108E1
:102930002A01461A570A0B2D10E01195019511092D
:102940006F3F8FEF780729F4D6019C92C60101965C
:102950006C014617570784F0661677066CF47F0102
:10296000E40CF51CA1E0B0E0AC0FBD1FEA0EFB1EAD
:10297000D7011196BC9002C090E3B92E6150710945
:102980003196C60101967C016017710724F0D601CB
:10299000BC926C01D5CF6417750741F4363320F42F
:1029A000353321F4A11002C081E3B82EF601B082C4
:1029B000F701822F90E2882319F091938150FBCF89
:1029C000F701E20FF11D108280E090E029960FB62A
:1029D000F894DEBF0FBECDBFDF91CF911F910F9155
:1029E000FF90EF90DF90CF90BF90AF909F907F903F
:1029F0006F905F904F900895283008F027E03327BC
:102A0000DA01990F311D87FD91600096610571050E
:102A100039F432602E5F3D9330E32A95E1F7089553
:102A20009F3F30F080387105610509F03C5F3C5FE5
:102A30003D93913008F08068911DDF93CF931F93F1
:102A40000F93FF92EF92192F987F9695E92F969505
:102A50009695E90FFF27EE52FF4F99273327EE2473
:102A6000FF24A701E70105900894079428F4360F86
:102A7000E71EF81E491F511D660F771F881F991FFB
:102A80000694A1F70590079428F4E70EF81E491F55
:102A9000561FC11D770F881F991F661F0694A1F747
:102AA0000590079428F4F80E491F561FC71FD11D23
:102AB000880F991F661F771F0694A1F7059007944A
:102AC00020F4490F561FC71FD81F990F661F771F85
:102AD000881F0694A9F784911095177041F0D69538
:102AE000C79557954795F794E7941A95C1F7E8E786
:102AF000F0E0689415901591359165919591059048
:102B00007FE27395E118F10A430B560BC90BD0090C
:102B1000C0F7E10CF11E431F561FC91FD01D7EF4E4
:102B2000703311F48A95E6CFE894015030F0080F25
:102B30000AF40027021708F4202F2395022F7A3376
:102B400028F079E37D932A95E9F710C07D932A95C3
:102B500089F6069497956795379517951794E11818
:102B6000F10A430B560BC90BD00998F023957E91BF
:102B700073957A3308F070E37C932013B8F77E9155
:102B800070617D9330F0839571E37D9370E32A95B6
:102B9000E1F71124EF90FF900F911F91CF91DF91FA
:102BA000992787FD90950895FC010590615070402C
:102BB0000110D8F7809590958E0F9F1F0895FC0106
:102BC0006150704001900110D8F7809590958E0F5C
:102BD0009F1F08950F931F93CF93DF93FB012381D2
:102BE00021FD03C08FEF9FEF28C022FF16C0468152
:102BF0005781248135814217530744F4A081B18164
:102C00009D012F5F3F4F318320838C932681378135
:102C10002F5F3F4F3783268310C0EB01092F182FFA
:102C20000084F185E02D0995892BE1F68E819F8145
:102C300001969F838E83812F902FDF91CF911F91DB
:102C40000F910895FA01AA27283051F1203181F11E
:102C5000E8946F936E7F6E5F7F4F8F4F9F4FAF4FA4
:102C6000B1E03ED0B4E03CD0670F781F891F9A1FB7
:102C7000A11D680F791F8A1F911DA11D6A0F711D6B
:102C8000811D911DA11D20D009F468943F912AE077
:102C9000269F11243019305D3193DEF6CF0108955F
:102CA000462F4770405D4193B3E00FD0C9F7F6CF90
:102CB000462F4F70405D4A3318F0495D31FD405258
:102CC000419302D0A9F7EACFB4E0A69597958795EE
:102CD00077956795BA95C9F70097610571050895CD
:102CE0009B01AC010A2E0694579547953795279579
:102CF000BA95C9F7620F731F841F951FA01D089511
:102D00000E94C21608F481E00895E89409C097FB78
:102D10003EF490958095709561957F4F8F4F9F4FB2
:102D20009923A9F0F92F96E9BB279395F6958795F6
:102D300077956795B795F111F8CFFAF4BB0F11F4B9
:102D400060FF1BC06F5F7F4F8F4F9F4F16C0882360
:102D500011F096E911C0772321F09EE8872F762F96
:102D600005C0662371F096E8862F70E060E02AF0D7
:102D70009A95660F771F881FDAF7880F96958795C3
:102D800097F90895990F0008550FAA0BE0E8FEEF98
:102D900016161706E807F907C0F012161306E4071F
:102DA000F50798F0621B730B840B950B39F40A2618
:102DB00061F0232B242B252B21F408950A2609F4F6
:102DC000A140A6958FEF811D811D08950E94F916DF
:102DD0000C946A170E945C1738F00E94631720F069
:102DE000952311F00C9453170C94591711240C943B
:102DF0009E170E947B1770F3959FC1F3950F50E0CB
:102E0000551F629FF001729FBB27F00DB11D639F9C
:102E1000AA27F00DB11DAA1F649F6627B00DA11D42
:102E2000661F829F2227B00DA11D621F739FB00DE8
:102E3000A11D621F839FA00D611D221F749F332758
:102E4000A00D611D231F849F600D211D822F762FF1
:102E50006A2F11249F5750409AF0F1F088234AF0CE
:102E6000EE0FFF1FBB1F661F771F881F915050403A
:102E7000A9F79E3F510580F00C9453170C949E17B0
:102E80005F3FE4F3983ED4F3869577956795B795C1
:102E9000F795E7959F5FC1F7FE2B880F911D9695DB
:102EA000879597F9089597F99F6780E870E060E04B
:102EB00008959FEF80EC089500240A9416161706D3
:102EC00018060906089500240A941216130614061B
:102ED00005060895092E0394000C11F4882352F07E
:102EE000BB0F40F4BF2B11F460FF04C06F5F7F4F36
:102EF0008F4F9F4F089557FD9058440F551F59F01D
:102F00005F3F71F04795880F97FB991F61F09F3FD6
:102F100079F087950895121613061406551FF2CFFF
:102F20004695F1DF08C0161617061806991FF1CF4F
:102F300086957105610508940895E894BB27662776
:102F40007727CB0197F90895A1E21A2EAA1BBB1B84
:102F5000FD010DC0AA1FBB1FEE1FFF1FA217B30765
:102F6000E407F50720F0A21BB30BE40BF50B661F7B
:102F7000771F881F991F1A9469F76095709580953F
:102F800090959B01AC01BD01CF0108952F923F9216
:102F90004F925F926F927F928F929F92AF92BF9269
:102FA000CF92DF92EF92FF920F931F93CF93DF9315
:102FB000CDB7DEB7CA1BDB0B0FB6F894DEBF0FBE72
:102FC000CDBF09942A88398848885F846E847D84BF
:102FD0008C849B84AA84B984C884DF80EE80FD80C1
:102FE0000C811B81AA81B981CE0FD11D0FB6F89437
:102FF000DEBF0FBECDBFED0108955058BB27AA27F5
:103000000E9415180C946A170E945C1738F00E94F1
:10301000631720F039F49F3F19F426F40C945917E4
:103020000EF4E095E7FB0C945317E92F0E947B17F1
:1030300058F3BA17620773078407950720F079F4ED
:10304000A6F50C949D170EF4E0950B2EBA2FA02D2B
:103050000B01B90190010C01CA01A0011124FF2745
:10306000591B99F0593F50F4503E68F11A16F04040
:10307000A22F232F342F4427585FF3CF469537953F
:103080002795A795F0405395C9F77EF41F16BA0B04
:10309000620B730B840BBAF09150A1F0FF0FBB1FB2
:1030A000661F771F881FC2F70EC0BA0F621F731FFB
:1030B000841F48F4879577956795B795F7959E3F58
:1030C00008F0B0CF9395880F08F09927EE0F9795E9
:1030D000879508950E947E180C946A170E946317C2
:1030E00058F00E945C1740F029F45F3F29F00C94DF
:1030F000531751110C949E170C9459170E947B176B
:1031000068F39923B1F3552391F3951B550BBB2716
:10311000AA2762177307840738F09F5F5F4F220F5B
:10312000331F441FAA1FA9F335D00E2E3AF0E0E852
:1031300032D091505040E695001CCAF72BD0FE2F9C
:1031400029D0660F771F881FBB1F26173707480730
:10315000AB07B0E809F0BB0B802DBF01FF279358E8
:103160005F4F3AF09E3F510578F00C9453170C9442
:103170009E175F3FE4F3983ED4F386957795679565
:10318000B795F7959F5FC9F7880F911D969587951D
:1031900097F90895E1E0660F771F881FBB1F62173C
:1031A00073078407BA0720F0621B730B840BBA0BFA
:1031B000EE1F88F7E09508950E94831788F09F57C7
:1031C00098F0B92F9927B751B0F0E1F0660F771F4B
:1031D000881F991F1AF0BA95C9F714C0B13091F041
:1031E0000E949D17B1E008950C949D17672F782FCA
:1031F0008827B85F39F0B93FCCF386957795679506
:10320000B395D9F73EF490958095709561957F4F71
:103210008F4F9F4F08950E94C21608F48FEF0895B4
:103220000E94C216880B990B0895EE0FFF1F0590A0
:10323000F491E02D0994CF93DF938230910510F43F
:1032400082E090E0E091FB05F091FC0520E030E0A9
:10325000C0E0D0E0309711F1408151814817590703
:10326000C0F04817590761F482819381209719F0C3
:103270009B838A832BC09093FC058093FB0526C01B
:103280002115310519F04217530718F49A01BE01B0
:10329000DF01EF010280F381E02DDCCF2115310544
:1032A00009F1281B390B2430310590F412968D91C9
:1032B0009C9113976115710521F0FB019383828323
:1032C00004C09093FC058093FB05FD01329644C039
:1032D000FD01E20FF31F81939193225031092D9349
:1032E0003C933AC02091F9053091FA05232B41F423
:1032F00020910201309103013093FA052093F905E2
:1033000020910001309101012115310541F42DB7C3
:103310003EB74091040150910501241B350BE0910B
:10332000F905F091FA05E217F307A0F42E1B3F0B05
:103330002817390778F0AC014E5F5F4F2417350727
:1033400048F04E0F5F1F5093FA054093F9058193A3
:10335000919302C0E0E0F0E0CF01DF91CF910895BA
:103360000F931F93CF93DF93009709F48CC0FC0158
:103370003297138212820091FB051091FC05011512
:10338000110581F420813181820F931F2091F9056D
:103390003091FA052817390779F5F093FA05E0938B
:1033A000F90571C0D80140E050E0AE17BF0750F4F6
:1033B00012962D913C911397AD012115310509F11C
:1033C000D901F3CF9D01DA013383228360817181BA
:1033D000860F971F8217930769F4EC0128813981C2
:1033E000260F371F2E5F3F4F318320838A819B81B9
:1033F00093838283452B29F4F093FC05E093FB052E
:1034000042C01396FC93EE931297ED0149915991A6
:103410009E01240F351FE217F30771F4808191811B
:10342000840F951F029611969C938E9382819381AF
:1034300013969C938E931297E0E0F0E0D8011296D9
:103440008D919C911397009719F0F8018C01F6CF9C
:103450008D919C9198012E5F3F4F820F931F209179
:10346000F9053091FA052817390769F4309729F4DE
:103470001092FC051092FB0502C013821282109379
:10348000FA050093F905DF91CF911F910F910895EF
:10349000A0E0B0E0EEE4FAE10C94CA17EC0100976A
:1034A00021F4CB010E941B19B8C0FC01E60FF71FE5
:1034B0009C0122503109E217F30708F4ACC0D9018E
:1034C0000D911C91119706171707B0F005301105E3
:1034D00008F49FC0C80104978617970708F499C09D
:1034E00002501109061B170B019311936D937C93E6
:1034F000CF010E94B0198DC05B01A01AB10A4C0126
:10350000800E911EA091FB05B091FC0540E050E0BB
:10351000E12CF12C109709F44AC0A815B905D1F592
:103520006D907C901197630182E0C80ED11CCA1483
:10353000DB0480F1A3014A195B096A0182E0C80E2D
:10354000D11C1296BC9012971396AC91B5E0CB1695
:10355000D10440F0B282A38351834083D9016D939B
:103560007C930AC00E5F1F4FC301800F911FF901AA
:1035700091838083EB2DFA2FE114F10431F0D70110
:103580001396FC93EE93129744C0F093FC05E093DE
:10359000FB053FC08D919C9111974817590708F47E
:1035A000AC017D0112960D90BC91A02DB3CF8091FE
:1035B000F9059091FA0588159905E1F44617570722
:1035C000C8F48091000190910101009741F48DB7FA
:1035D0009EB74091040150910501841B950BE8179B
:1035E000F907C8F4F093FA05E093F905F90171833E
:1035F00060830FC0CB010E941B197C01009759F01A
:10360000A801BE010E94171BCE010E94B019C7017C
:1036100004C0CE0102C080E090E0CDB7DEB7EEE09E
:103620000C94E61781E090E0F8940C944A1BFB019F
:10363000DC0102C001900D9241505040D8F708952E
:10364000FB01DC0101900D920020E1F70895AEE04E
:10365000B0E0EDE2FBE10C94D4170D891E8986E001
:103660008C831A8309838FEF9FE79E838D83AE013E
:10367000475E5F4F6F89788DCE0101960E949C1145
:103680002F813885F801E20FF31F10822E96E4E0B7
:083690000C94F017F894FFCF31
:103698000000FD05800030303030310000000000AF
:1036A80053010F013A019A013B0719072D07000042
:1036B80000000408D4073408A807CC07B807A907EE
:1036C800456E61626C65640044697361626C65642F
:1036D80000564D4450565F317C315F564D4450562C
:1036E8000D0A00496E697469616C697A65204D50EC
:1036F800553630353000436F756C64206E6F74201A
:1037080066696E6420612076616C6964204D50554D
:10371800363035302073656E736F722C20636865A0
:10372800636B20776972696E672100202A20536CC9
:10373800656570204D6F64653A2020202020202088
:10374800202020202000202A20436C6F636B205308
:103758006F757263653A20202020202020202020C9
:103768000053746F70732074686520636C6F636BAB
:1037780020616E64206B65657073207468652074C1
:10378800696D696E672067656E657261746F722016
:10379800696E20726573657400504C4C20776974AB
:1037A800682065787465726E616C2031392E324DEF
:1037B800487A207265666572656E636500504C4C88
:1037C80020776974682065787465726E616C20333F
:1037D800322E3736386B487A207265666572656EA8
:1037E800636500504C4C2077697468205A206178D2
:1037F8006973206779726F73636F7065207265668D
:103808006572656E636500504C4C2077697468205A
:10381800592061786973206779726F73636F706577
:10382800207265666572656E636500504C4C207742
:1038380069746820582061786973206779726F739A
:10384800636F7065207265666572656E63650049B1
:103858006E7465726E616C20384D487A206F7363A0
:10386800696C6C61746F7200202A20416363656C17
:1038780065726F6D657465723A20202020202020C3
:103888002020002B2F2D2031362067002B2F2D20B4
:10389800382067002B2F2D20342067002B2F2D2058
:1038A80032206700202A20416363656C65726F6D62
:1038B80065746572206F6666736574733A200020BC
:1038C8002F20006E616E00696E66006F7666005686
:1038D8004D4450455F003A323A007C005F564D44F3
:1038E8005045002058726177203D200020597261B0
:1038F80077203D2000205A726177203D2000205813
:103908006E6F726D203D200020596E6F726D203DE4
:103918002000205A6E6F726D203D20005F25735F76
:1039280025735F257324005F25735F257300313687
:103938002E303632313830003130382E3234373884
:0C39480036350040494430584646000027
:107800000C94343C0C94513C0C94513C0C94513CE1
:107810000C94513C0C94513C0C94513C0C94513CB4
:107820000C94513C0C94513C0C94513C0C94513CA4
:107830000C94513C0C94513C0C94513C0C94513C94
:107840000C94513C0C94513C0C94513C0C94513C84
:107850000C94513C0C94513C0C94513C0C94513C74
:107860000C94513C0C94513C11241FBECFEFD8E036
:10787000DEBFCDBF11E0A0E0B1E0ECE9FFE702C060
:1078800005900D92A230B107D9F712E0A2E0B1E065
:1078900001C01D92AD30B107E1F70E942D3D0C945F
:1078A000CC3F0C94003C982F959595959595959582
:1078B000905D8F708A307CF0282F295A8091C0000B
:1078C00085FFFCCF9093C6008091C00085FFFCCF60
:1078D0002093C6000895282F205DF0CF982F809127
:1078E000C00085FFFCCF9093C6000895EF92FF92F1
:1078F0000F931F93EE24FF2487018091C00087FD22
:1079000017C00894E11CF11C011D111D81E4E8164B
:1079100082E4F8068FE0080780E0180770F3E09132
:107920000401F091050109958091C00087FFE9CF1E
:107930008091C6001F910F91FF90EF9008950E94D3
:10794000763C982F8091C00085FFFCCF9093C600B5
:1079500091362CF490330CF09053892F089597555D
:10796000892F08951F930E949F3C182F0E949F3CCF
:107970001295107F810F1F9108951F93182F882350
:1079800021F00E94763C1150E1F71F9108951F935A
:10799000182F0E94763C803249F0809103018F5F5E
:1079A000809303018530C1F01F9108958091C0003C
:1079B00085FFFCCF84E18093C6008091C00085FFE5
:1079C000FCCF1093C6008091C00085FFFCCF80E102
:1079D0008093C6001F910895E0910401F091050184
:1079E00009951F9108950E94763C803241F0809164
:1079F00003018F5F80930301853081F008958091AA
:107A0000C00085FFFCCF84E18093C6008091C00058
:107A100085FFFCCF80E18093C6000895E0910401CA
:107A2000F09105010995089540E951E08823A1F0FE
:107A30002D9A28EE33E0FA013197F1F721503040CA
:107A4000D1F72D9828EE33E0FA013197F1F7215064
:107A50003040D1F7815061F708953F924F925F9285
:107A60006F927F928F929F92AF92BF92CF92DF924E
:107A7000EF92FF920F931F93CF93DF93000080E16B
:107A80008093C4001092C50088E18093C10086E015
:107A90008093C2005098589A259A81E00E94143D24
:107AA00024E1F22E9EE1E92E85E9D82E0FE0C02ECA
:107AB00010E1B12EAA24A394B1E49B2EA6E58A2E50
:107AC000F2E57F2EE0E26E2E79E4572E63E5462E36
:107AD00050E5352E0E94763C8033B1F18133B9F107
:107AE000803409F46FC0813409F476C0823409F41B
:107AF00085C0853409F488C0803531F1823521F1A3
:107B0000813511F1853509F485C0863509F48DC0BC
:107B1000843609F496C0843709F403C1853709F423
:107B200072C1863709F466C0809103018F5F80932C
:107B30000301853079F6E0910401F0910501099582
:107B40000E94763C803351F60E94F33CC3CF0E94E2
:107B5000763C803249F78091C00085FFFCCFF092DF
:107B6000C6008091C00085FFFCCF9092C600809136
:107B7000C00085FFFCCF8092C6008091C00085FFC9
:107B8000FCCF7092C6008091C00085FFFCCF609250
:107B9000C6008091C00085FFFCCF5092C600809146
:107BA000C00085FFFCCF4092C6008091C00085FFD9
:107BB000FCCF3092C6008091C00085FFFCCFB09210
:107BC000C60088CF0E94763C863808F4BDCF0E945C
:107BD000763C0E94F33C7ECF0E94763C803809F4CC
:107BE0009CC0813809F40BC1823809F43CC1883942
:107BF00009F48FC080E00E94C73C6CCF84E10E94F2
:107C0000BD3C0E94F33C66CF85E00E94BD3C0E94D3
:107C1000F33C60CF0E94763C809306010E94763C44
:107C2000809307010E94F33C55CF0E94763C80333D
:107C300009F41DC183E00E94BD3C80E00E94C73C66
:107C400049CF0E94763C809309020E94763C809343
:107C5000080280910C028E7F80930C020E94763C79
:107C6000853409F415C18091080290910902892B8D
:107C700089F000E010E00E94763CF801E85FFE4FDA
:107C800080830F5F1F4F80910802909109020817AF
:107C9000190788F30E94763C803209F045CF809125
:107CA0000C0280FF01C16091060170910701660F0F
:107CB000771F7093070160930601A0910802B091AD
:107CC00009021097C9F0E8E0F1E09B01AD014E0F09
:107CD0005F1FF999FECF32BD21BD819180BDFA9A17
:107CE000F99A2F5F3F4FE417F50799F76A0F7B1F4B
:107CF00070930701609306018091C00085FFFCCF5F
:107D0000F092C6008091C00085FFFCCFB092C60003
:107D1000E1CE83E00E94C73CDDCE82E00E94C73CFA
:107D2000D9CE0E94763C809309020E94763C8093D3
:107D300008028091060190910701880F991F909386
:107D40000701809306010E94763C853409F4A6C0A1
:107D500080910C028E7F80930C020E94763C8032D0
:107D600009F0B8CE8091C00085FFFCCFF092C6002C
:107D7000609108027091090261157105B9F140E046
:107D800050E080910C02A82FA170B82FB27011C0E2
:107D9000BB2309F45CC0E0910601F0910701319624
:107DA000F0930701E09306014F5F5F4F46175707B7
:107DB000E8F4AA2369F3F999FECF209106013091E6
:107DC000070132BD21BDF89A90B58091C00085FFB2
:107DD000FCCF9093C6002F5F3F4F30930701209355
:107DE00006014F5F5F4F4617570718F38091C00099
:107DF00085FDE5CE8091C00085FFF8CFE0CE81E023
:107E00000E94C73C67CE0E94763C803209F08CCE3F
:107E10008091C00085FFFCCFF092C6008091C00029
:107E200085FFFCCFE092C6008091C00085FFFCCFAB
:107E3000D092C6008091C00085FFFCCFC092C600E2
:107E40008091C00085FFFCCFB092C60043CEE09188
:107E50000601F091070194918091C00085FFFCCF4D
:107E60009093C6009CCF80E10E94C73C33CE0E9415
:107E7000763C0E94763C182F0E94763C112309F430
:107E800083C0113009F484C08FE00E94C73C22CE29
:107E900080910C02816080930C02E5CE80910C02EF
:107EA000816080930C0259CF809107018823880F4D
:107EB000880B8A2180930B02809106019091070123
:107EC000880F991F90930701809306018091080203
:107ED00080FF09C080910802909109020196909359
:107EE000090280930802F894F999FECF1127E091D6
:107EF0000601F0910701C8E0D1E08091080290915D
:107F00000902103091F40091570001700130D9F34B
:107F100003E000935700E89500915700017001308D
:107F2000D9F301E100935700E89509901990009169
:107F3000570001700130D9F301E000935700E89534
:107F40001395103498F011270091570001700130FB
:107F5000D9F305E000935700E895009157000170B0
:107F60000130D9F301E100935700E895329602976A
:107F700009F0C7CF103011F00296E5CF112480919F
:107F8000C00085FFB9CEBCCE8EE10E94C73CA2CD19
:0C7F900085E90E94C73C9ECDF894FFCF0D
:027F9C00800063
:040000030000780081
:00000001FF